:100000000C945D000C9485000C9485000C948E0477
:100010000C948E040C948E040C9485000C94850032
:100020000C9485000C9485000C9485000C9485003C
:100030000C9485000C9485000C9485000C9485002C
:100040000C9444040C9485000C9412040C94EC035E
:100050000C9485000C9485000C9485000C9485000C
:100060000C9485000C94850000000008000201003B
:100070000003040700000000000000000000000072
:10008000250028002B0000000000240027002A0083
:10009000040404040404040402020202020203032E
:1000A0000303030301020408102040800102040836
:1000B0001020010204081020980411241FBECFEF65
:1000C000D8E0DEBFCDBF11E0A0E0B1E0E6E3FFE0A5
:1000D00002C005900D92A43CB107D9F722E0A4EC30
:1000E000B1E001C01D92A138B207E1F710E0CDE503
:1000F000D0E004C02197FE010E948507CC35D107CE
:10010000C9F70E94E5040C9499070C94000090E054
:10011000FC01EC55FF4F2491FC01E057FF4F849107
:10012000882399F090E0880F991FFC01EA57FF4F50
:10013000A591B491FC01E458FF4F859194918FB73C
:10014000F894EC91E22BEC938FBF0895CF92DF925D
:10015000FF920F931F93CF93DF931F92CDB7DEB71C
:10016000F82E8B016C018C2D8F198417A0F48091CF
:10017000770290917802D6016D916D01DC01ED91CD
:10018000FC910190F081E02D49830995F80181935C
:100190008F014981E8CF0F90DF91CF911F910F918F
:1001A000FF90DF90CF900895CF92DF92EF92FF9271
:1001B0000F931F93CF93DF936C017A018B01C0E003
:1001C000D0E0CE15DF0589F0D8016D918D01D60103
:1001D000ED91FC910190F081E02DC6010995892BEC
:1001E00011F47E0102C02196ECCFC701DF91CF91BF
:1001F0001F910F91FF90EF90DF90CF900895FC0139
:10020000918D828D981761F0828DDF01A80FB11D4D
:100210005D968C91928D9F5F9F73928F90E0089571
:100220008FEF9FEF0895FC01918D828D981731F02B
:10023000828DE80FF11D858D90E008958FEF9FEF7F
:100240000895FC01918D228D892F90E0805C9F4F55
:10025000821B91098F739927089585ED91E00E9483
:10026000210121E0892B09F420E0822F0895FC016F
:10027000848DDF01A80FB11DA35ABF4F2C91848D2F
:1002800090E001968F739927848FA689B7892C9364
:10029000A089B1898C9180648C93938D848D9813FF
:1002A00006C00288F389E02D80818F7D80830895C8
:1002B000EF92FF920F931F93CF93DF93EC0181E0B6
:1002C000888F9B8D8C8D981305C0E889F989808172
:1002D00085FD24C0F62E0B8D10E00F5F1F4F0F73AE
:1002E0001127E02E8C8DE8120CC00FB607FCFACF58
:1002F000E889F989808185FFF5CFCE010E94370119
:10030000F1CF8B8DFE01E80FF11DE35AFF4FF08214
:100310000B8FEA89FB898081806207C0EE89FF89A3
:100320006083E889F98980818064808381E090E03E
:10033000DF91CF911F910F91FF90EF900895CF9390
:10034000DF93EC01888D8823C9F0EA89FB898081DD
:1003500085FD05C0A889B9898C9186FD0FC00FB6AF
:1003600007FCF5CF808185FFF2CFA889B9898C91F0
:1003700085FFEDCFCE010E943701E7CFDF91CF910E
:10038000089580E090E0892B29F00E942D018111D1
:100390000C940000089590E0FC01E859FF4F34915F
:1003A000FC01EC55FF4F2491FC01E057FF4FE49115
:1003B000EE2309F43BC0332339F1333091F038F4A4
:1003C0003130A9F0323001F584B58F7D12C037305D
:1003D00091F03830A1F03430B9F4809180008F7DF5
:1003E00003C0809180008F77809380000DC084B51A
:1003F0008F7784BD09C08091B0008F7703C0809152
:10040000B0008F7D8093B000F0E0EE0FFF1FE45846
:10041000FF4FA591B4918FB7F894EC91611103C08F
:1004200020952E2301C02E2B2C938FBF089561E0C1
:10043000809174020C94CB0160E0809174020C9462
:10044000CB010F931F93CF93DF93C82FD62F0E941A
:100450001C0202E712E0D80115968D919C91169727
:10046000DC01ED91FC91CF716C2F60620190F08105
:10047000E02D0995F80185819681DC01ED91FC91D3
:100480000190F081E02D6D2F0995DF91CF911F91A3
:100490000F910C9417020F931F93CF93C82F8B01CA
:1004A0000E941C028091770290917802DC01ED910C
:1004B000FC916C2F6F710190F081E02D099541E066
:1004C000B801C8010E94A600CF911F910F910C9412
:1004D0001702CF93DF93C2E7D2E0188260E08981F0
:1004E0000E94CB016FE080E00E94210261E08981DF
:1004F0000E94CB0160E387E0DF91CF910C94210251
:100500003FB7F8948091CC019091CD01A091CE019C
:10051000B091CF0126B5A89B05C02F3F19F00196D9
:10052000A11DB11D3FBFBA2FA92F982F8827820F79
:10053000911DA11DB11DBC01CD0142E0660F771FC9
:10054000881F991F4A95D1F708958F929F92AF9275
:10055000BF92CF92DF92EF92FF926B017C010E94DB
:1005600080024B015C01C114D104E104F104F1F0FB
:100570000E948002DC01CB0188199909AA09BB09F4
:10058000883E9340A105B10570F321E0C21AD1085D
:10059000E108F10888EE880E83E0981EA11CB11CCA
:1005A000C114D104E104F10419F7DDCFFF90EF90FD
:1005B000DF90CF90BF90AF909F908F9008952FB70E
:1005C000F8946091C8017091C9018091CA0190911D
:1005D000CB012FBF08950895CF93CFB7F8948091A2
:1005E000C601811124C0EAE9F0E08491EEEAF0E06E
:1005F0009491E82FF0E0EE0FFF1FEA57FF4FA5910F
:10060000B491EC91E92321F461E08AE00E94CB01EE
:100610008AE00E9487008CB580618CBD8CB58064B7
:100620008CBD8DE00E9487008BE00E948700809146
:10063000C6018F5F8093C601CFBF8CB5837F8CBD11
:100640008CB58C7F81608CBD8DB58E7F8DBDCF913B
:1006500008956EBD00000DB407FEFDCF8EB5089560
:10066000CF92DF92EF92FF92CF93DF931F92CDB79D
:10067000DEB7F82E61E085E099830E94CB01CF2C94
:100680009981D92ED7FE03C08FEFC81AD80AD59406
:10069000C7940D2C000CEE08FF08C701B6010E949C
:1006A000A50260E085E00E94CB01C701B6010F9072
:1006B000DF91CF91FF90EF90DF90CF900C94A50247
:1006C000009769F0FC0101900020E9F73197AF0134
:1006D000481B590BBC0185ED91E00C94D40080E0DF
:1006E00090E008958F929F92AF92BF920F931F93C5
:1006F000CF93DF93CDB7DEB7A1970FB6F894DEBFE7
:100700000FBECDBF19A2423008F44AE08E010F5D42
:100710001F4F842E912CA12CB12CA50194010E9475
:100720006307E62FB901CA0101501109EA3014F438
:10073000E05D01C0E95CD801EC93232B242B252B31
:1007400061F7C8010E946003A1960FB6F894DEBF5E
:100750000FBECDBFDF91CF911F910F91BF90AF9092
:100760009F908F900895CF93DF930E946003EC01D8
:100770008CE191E00E9460038C0F9D1FDF91CF916F
:1007800008951092D40161E086E00E94CB0161E0FF
:1007900087E00E94CB018FE191E00E94B30368EEF5
:1007A00073E080E090E00C94A502CF93DF93682F74
:1007B00070E080E090E04AE00E947203EC018CE17E
:1007C00091E00E9460038C0F9D1FDF91CF910895EF
:1007D0000E948B070C9455071F920F920FB60F9231
:1007E00011242F933F934F935F936F937F938F9336
:1007F0009F93AF93BF93EF93FF9385ED91E00E949A
:100800003701FF91EF91BF91AF919F918F917F91B0
:100810006F915F914F913F912F910F900FBE0F906D
:100820001F9018951F920F920FB60F9211242F93BD
:100830008F939F93EF93FF93E091E501F091E60191
:100840008081E091EB01F091EC0182FD12C090817A
:100850008091EE018F5F8F732091EF01821751F02D
:10086000E091EE01F0E0EB52FE4F958F8093EE01A8
:1008700001C08081FF91EF919F918F912F910F90F7
:100880000FBE0F901F9018951F920F920FB60F92E8
:1008900011242F933F938F939F93AF93BF93809196
:1008A000C8019091C901A091CA01B091CB013091CA
:1008B000C70123E0230F2D3720F40196A11DB11DA0
:1008C00005C026E8230F0296A11DB11D2093C70184
:1008D0008093C8019093C901A093CA01B093CB0142
:1008E0008091CC019091CD01A091CE01B091CF012A
:1008F0000196A11DB11D8093CC019093CD01A093D1
:10090000CE01B093CF01BF91AF919F918F913F9155
:100910002F910F900FBE0F901F9018951F920F925E
:100920000FB60F9211240F900FBE0F901F901895C5
:10093000E5EDF1E01382128288EE93E0A0E0B0E0F2
:1009400084839583A683B78380E191E0918380833C
:1009500085EC90E09587848784EC90E09787868784
:1009600080EC90E0918B808B81EC90E0938B828B7C
:1009700082EC90E0958B848B86EC90E0978B868B55
:10098000118E128E138E148EE2E7F2E088E08183DE
:1009900087E0828381E0838380E1848316821582ED
:1009A0000E94DF0260937D0270937E0280937F023B
:1009B000909380020E94DF026093790270937A0222
:1009C00080937B0290937C020895CF93DF931F92D4
:1009D000CDB7DEB7789484B5826084BD84B581607C
:1009E00084BD85B5826085BD85B5816085BD8091FA
:1009F0006E00816080936E00109281008091810072
:100A00008260809381008091810081608093810069
:100A1000809180008160809380008091B10084602B
:100A20008093B1008091B00081608093B00080918C
:100A30007A00846080937A0080917A00826080934B
:100A40007A0080917A00816080937A0080917A00A8
:100A5000806880937A001092C100E091E501F091E6
:100A6000E60182E08083E091E101F091E2011082F1
:100A7000E091E301F091E40180E180831092ED01C7
:100A8000E091E901F091EA0186E08083E091E701DD
:100A9000F091E801808180618083E091E701F0912D
:100AA000E801808188608083E091E701F091E801AE
:100AB000808180688083E091E701F091E801808186
:100AC0008F7D80838DE291E00E94B30360E380E03C
:100AD00090E00E94EA0360E381E090E00E94EA0374
:100AE00062E382E090E00E94EA0360E383E090E04A
:100AF0000E94EA0360E384E090E00E94EA0360E37E
:100B000085E090E00E94EA0386E00E94870087E08B
:100B10000E94870085E00E9487000E94C103109216
:100B2000D30186E391E00E94B30380E090E00E944D
:100B30004D07682F70E080E090E04AE00E94720369
:100B400081E090E00E944D07682F70E080E090E027
:100B50004AE00E94720382E090E00E944D070E94EA
:100B6000D50383E491E00E94B30383E090E00E9408
:100B70004D07682F70E080E090E04AE00E94720329
:100B800084E090E00E944D07682F70E080E090E0E4
:100B90004AE00E94720385E090E00E944D070E94A7
:100BA000D5038AE08093740289E08093730280E029
:100BB00091E0909378028093770289E00E94870009
:100BC000809174020E94870060E0809173020E940D
:100BD000CB010E9417028091770290917802DC018C
:100BE000ED91FC910280F381E02D099560E0809108
:100BF00073020E94CB010E941C02809177029091A7
:100C00007802DC01ED91FC910190F081E02D6BE226
:100C1000099507E211E085E0F82EF00E8091770249
:100C200090917802F80161918F01DC01ED91FC91C6
:100C30000190F081E02D0995F012F0CF0E9417028B
:100C400061E0809173020E94CB0183E08093760281
:100C500083E591E00E946003809176020E94D503B3
:100C60008AE58093750282E691E00E94600380919C
:100C700075020E94D5036091750285E00E942102F1
:100C80006091760281E10E9421026091760282E108
:100C90000E9421020E9469020E941C028091770238
:100CA00090917802DC01ED91FC910190F081E02DB2
:100CB00062EE09950E941702EDB6FEB684EF91E050
:100CC0000E94300384EF91E00E9430038CE691E0B3
:100CD0000E94B303BE016F5F7F4F87E00E944B020B
:100CE000898186FF43C089E791E00E94B30361E0F8
:100CF00088E00E94CB0164EF71E080E090E00E9408
:100D0000A50260E088E00E94CB018091760290E02D
:100D10000196EDB7FEB7E81BF90B0FB6F894FEBFCE
:100D20000FBEEDBF0DB71EB70F5F1F4F0E941C0215
:100D30008091770290917802DC01ED91FC91019015
:100D4000F081E02D61E6099540917602B801C80175
:100D50000E94A6000E94170260E487E00E94210220
:100D600081E891E00E94600368010FC0BE016F5FDF
:100D70007F4F87E10E944B02898180FFB4CFA89505
:100D800084E690E00E943003A5CF8091760290E047
:100D90009601201B310B2817390774F4F601619175
:100DA0006F01E091D501F091D6010190F081E02D25
:100DB00085ED91E00995E9CF8EE191E00E94B303C2
:100DC00080E991E00E94B30380917602F801E80F78
:100DD000F11D10828FE991E00E946003C8010E941A
:100DE000B3036DEA71E0C8010E949007892B19F4E2
:100DF0000E94C1033BC061EB71E0C8010E949007F3
:100E0000892BB1F40E94C1030E94DF0260937D022E
:100E100070937E0280937F029093800281E08093A2
:100E2000D40160E086E00E94CB0185EB91E01CC01C
:100E300069E271E0C8010E949007892BB9F40E9411
:100E4000C1030E94DF0260937D0270937E02809353
:100E50007F029093800281E08093D40160E087E07C
:100E60000E94CB018BEB91E00E94B3038091720250
:100E7000882359F0BE016F5F7F4F87E00E944B02CD
:100E80008981807399F30E9469020FB6F894FEBEBF
:100E90000FBEEDBE0E94C1010FCFF999FECF92BDEA
:100EA00081BDF89A992780B50895262FF999FECF2C
:100EB0001FBA92BD81BD20BD0FB6F894FA9AF99A77
:100EC0000FBE01960895A1E21A2EAA1BBB1BFD01BD
:100ED0000DC0AA1FBB1FEE1FFF1FA217B307E40719
:100EE000F50720F0A21BB30BE40BF50B661F771F71
:100EF000881F991F1A9469F7609570958095909551
:100F00009B01AC01BD01CF010895EE0FFF1F0590BD
:100F1000F491E02D099481E090E0F8940C94990705
:100F2000FB01DC018D91019080190110D9F3990B1F
:060F30000895F894FFCFC4
:100F36000601000000002903EC02EB02000000009D
:100F46005801D4002101FF0013019F010D0A00532F
:100F5600746F702E2E2E0030303030320073657470
:100F660075702E2E2E006F75722061646472657323
:100F7600733A006275726E6572206164647265739D
:100F8600733A007061796C6F61642073697A653AAF
:100F960020006368616E6E656C3A20004C6973745C
:100FA600656E696E672E2E2E00446174612E2E2E9C
:100FB600004461746120636F6E74656E743A20003C
:100FC6003D3D3D3D3D3D3D3D3D3D3D3D3D3D005273
:100FD600657475726E20646174613A200030303039
:100FE600003030310055702E2E2E00446F776E2E55
:040FF6002E2E00009B
:107800000C94343C0C94513C0C94513C0C94513CE1
:107810000C94513C0C94513C0C94513C0C94513CB4
:107820000C94513C0C94513C0C94513C0C94513CA4
:107830000C94513C0C94513C0C94513C0C94513C94
:107840000C94513C0C94513C0C94513C0C94513C84
:107850000C94513C0C94513C0C94513C0C94513C74
:107860000C94513C0C94513C11241FBECFEFD8E036
:10787000DEBFCDBF11E0A0E0B1E0ECE9FFE702C060
:1078800005900D92A230B107D9F712E0A2E0B1E065
:1078900001C01D92AD30B107E1F70E942D3D0C945F
:1078A000CC3F0C94003C982F959595959595959582
:1078B000905D8F708A307CF0282F295A8091C0000B
:1078C00085FFFCCF9093C6008091C00085FFFCCF60
:1078D0002093C6000895282F205DF0CF982F809127
:1078E000C00085FFFCCF9093C6000895EF92FF92F1
:1078F0000F931F93EE24FF2487018091C00087FD22
:1079000017C00894E11CF11C011D111D81E4E8164B
:1079100082E4F8068FE0080780E0180770F3E09132
:107920000401F091050109958091C00087FFE9CF1E
:107930008091C6001F910F91FF90EF9008950E94D3
:10794000763C982F8091C00085FFFCCF9093C600B5
:1079500091362CF490330CF09053892F089597555D
:10796000892F08951F930E949F3C182F0E949F3CCF
:107970001295107F810F1F9108951F93182F882350
:1079800021F00E94763C1150E1F71F9108951F935A
:10799000182F0E94763C803249F0809103018F5F5E
:1079A000809303018530C1F01F9108958091C0003C
:1079B00085FFFCCF84E18093C6008091C00085FFE5
:1079C000FCCF1093C6008091C00085FFFCCF80E102
:1079D0008093C6001F910895E0910401F091050184
:1079E00009951F9108950E94763C803241F0809164
:1079F00003018F5F80930301853081F008958091AA
:107A0000C00085FFFCCF84E18093C6008091C00058
:107A100085FFFCCF80E18093C6000895E0910401CA
:107A2000F09105010995089540E951E08823A1F0FE
:107A30002D9A28EE33E0FA013197F1F721503040CA
:107A4000D1F72D9828EE33E0FA013197F1F7215064
:107A50003040D1F7815061F708953F924F925F9285
:107A60006F927F928F929F92AF92BF92CF92DF924E
:107A7000EF92FF920F931F93CF93DF93000080E16B
:107A80008093C4001092C50088E18093C10086E015
:107A90008093C2005098589A259A81E00E94143D24
:107AA00024E1F22E9EE1E92E85E9D82E0FE0C02ECA
:107AB00010E1B12EAA24A394B1E49B2EA6E58A2E50
:107AC000F2E57F2EE0E26E2E79E4572E63E5462E36
:107AD00050E5352E0E94763C8033B1F18133B9F107
:107AE000803409F46FC0813409F476C0823409F41B
:107AF00085C0853409F488C0803531F1823521F1A3
:107B0000813511F1853509F485C0863509F48DC0BC
:107B1000843609F496C0843709F403C1853709F423
:107B200072C1863709F466C0809103018F5F80932C
:107B30000301853079F6E0910401F0910501099582
:107B40000E94763C803351F60E94F33CC3CF0E94E2
:107B5000763C803249F78091C00085FFFCCFF092DF
:107B6000C6008091C00085FFFCCF9092C600809136
:107B7000C00085FFFCCF8092C6008091C00085FFC9
:107B8000FCCF7092C6008091C00085FFFCCF609250
:107B9000C6008091C00085FFFCCF5092C600809146
:107BA000C00085FFFCCF4092C6008091C00085FFD9
:107BB000FCCF3092C6008091C00085FFFCCFB09210
:107BC000C60088CF0E94763C863808F4BDCF0E945C
:107BD000763C0E94F33C7ECF0E94763C803809F4CC
:107BE0009CC0813809F40BC1823809F43CC1883942
:107BF00009F48FC080E00E94C73C6CCF84E10E94F2
:107C0000BD3C0E94F33C66CF85E00E94BD3C0E94D3
:107C1000F33C60CF0E94763C809306010E94763C44
:107C2000809307010E94F33C55CF0E94763C80333D
:107C300009F41DC183E00E94BD3C80E00E94C73C66
:107C400049CF0E94763C809309020E94763C809343
:107C5000080280910C028E7F80930C020E94763C79
:107C6000853409F415C18091080290910902892B8D
:107C700089F000E010E00E94763CF801E85FFE4FDA
:107C800080830F5F1F4F80910802909109020817AF
:107C9000190788F30E94763C803209F045CF809125
:107CA0000C0280FF01C16091060170910701660F0F
:107CB000771F7093070160930601A0910802B091AD
:107CC00009021097C9F0E8E0F1E09B01AD014E0F09
:107CD0005F1FF999FECF32BD21BD819180BDFA9A17
:107CE000F99A2F5F3F4FE417F50799F76A0F7B1F4B
:107CF00070930701609306018091C00085FFFCCF5F
:107D0000F092C6008091C00085FFFCCFB092C60003
:107D1000E1CE83E00E94C73CDDCE82E00E94C73CFA
:107D2000D9CE0E94763C809309020E94763C8093D3
:107D300008028091060190910701880F991F909386
:107D40000701809306010E94763C853409F4A6C0A1
:107D500080910C028E7F80930C020E94763C8032D0
:107D600009F0B8CE8091C00085FFFCCFF092C6002C
:107D7000609108027091090261157105B9F140E046
:107D800050E080910C02A82FA170B82FB27011C0E2
:107D9000BB2309F45CC0E0910601F0910701319624
:107DA000F0930701E09306014F5F5F4F46175707B7
:107DB000E8F4AA2369F3F999FECF209106013091E6
:107DC000070132BD21BDF89A90B58091C00085FFB2
:107DD000FCCF9093C6002F5F3F4F30930701209355
:107DE00006014F5F5F4F4617570718F38091C00099
:107DF00085FDE5CE8091C00085FFF8CFE0CE81E023
:107E00000E94C73C67CE0E94763C803209F08CCE3F
:107E10008091C00085FFFCCFF092C6008091C00029
:107E200085FFFCCFE092C6008091C00085FFFCCFAB
:107E3000D092C6008091C00085FFFCCFC092C600E2
:107E40008091C00085FFFCCFB092C60043CEE09188
:107E50000601F091070194918091C00085FFFCCF4D
:107E60009093C6009CCF80E10E94C73C33CE0E9415
:107E7000763C0E94763C182F0E94763C112309F430
:107E800083C0113009F484C08FE00E94C73C22CE29
:107E900080910C02816080930C02E5CE80910C02EF
:107EA000816080930C0259CF809107018823880F4D
:107EB000880B8A2180930B02809106019091070123
:107EC000880F991F90930701809306018091080203
:107ED00080FF09C080910802909109020196909359
:107EE000090280930802F894F999FECF1127E091D6
:107EF0000601F0910701C8E0D1E08091080290915D
:107F00000902103091F40091570001700130D9F34B
:107F100003E000935700E89500915700017001308D
:107F2000D9F301E100935700E89509901990009169
:107F3000570001700130D9F301E000935700E89534
:107F40001395103498F011270091570001700130FB
:107F5000D9F305E000935700E895009157000170B0
:107F60000130D9F301E100935700E895329602976A
:107F700009F0C7CF103011F00296E5CF112480919F
:107F8000C00085FFB9CEBCCE8EE10E94C73CA2CD19
:0C7F900085E90E94C73C9ECDF894FFCF0D
:027F9C00800063
:040000030000780081
:00000001FF
