:100000000C9435000C945D000C945D000C945D0024
:100010000C945D000C945D000C945D000C945D00EC
:100020000C945D000C945D000C945D000C945D00DC
:100030000C945D000C945D000C945D000C945D00CC
:100040000C945F020C945D000C942D020C9407023A
:100050000C945D000C945D000C945D000C945D00AC
:100060000C945D000C945D00650411241FBECFEF5D
:10007000D8E0DEBFCDBF11E0A0E0B1E0EEEAF9E0EC
:1000800002C005900D92AE36B107D9F722E0AEE678
:10009000B1E001C01D92A731B207E1F710E0C5E35E
:1000A000D0E004C02197FE010E94CA04C433D107E6
:1000B000C9F70E94A9020C94D5040C940000CF92B9
:1000C000DF92EF92FF920F931F93CF93DF936C0118
:1000D0007A018B01C0E0D0E0CE15DF0589F0D801B0
:1000E0006D918D01D601ED91FC910190F081E02D93
:1000F000C6010995892B11F47E0102C02196ECCF2F
:10010000C701DF91CF911F910F91FF90EF90DF908A
:10011000CF900895FC01918D828D981761F0828DAA
:10012000DF01A80FB11D5D968C91928D9F5F9F732B
:10013000928F90E008958FEF9FEF0895FC01918DCD
:10014000828D981731F0828DE80FF11D858D90E03A
:1001500008958FEF9FEF0895FC01918D228D892FD7
:1001600090E0805C9F4F821B91098F7399270895BF
:100170008AE791E00E94AC0021E0892B09F420E09D
:10018000822F0895FC01848DDF01A80FB11DA35AB1
:10019000BF4F2C91848D90E001968F739927848FA7
:1001A000A689B7892C93A089B1898C9180648C939E
:1001B000938D848D981306C00288F389E02D808189
:1001C0008F7D80830895EF92FF920F931F93CF93BB
:1001D000DF93EC0181E0888F9B8D8C8D981305C097
:1001E000E889F989808185FD24C0F62E0B8D10E009
:1001F0000F5F1F4F0F731127E02E8C8DE8120CC07C
:100200000FB607FCFACFE889F989808185FFF5CF21
:10021000CE010E94C200F1CF8B8DFE01E80FF11DCF
:10022000E35AFF4FF0820B8FEA89FB89808180625D
:1002300007C0EE89FF896083E889F989808180643D
:10024000808381E090E0DF91CF911F910F91FF902B
:10025000EF900895CF93DF93EC01888D8823C9F048
:10026000EA89FB89808185FD05C0A889B9898C91BF
:1002700086FD0FC00FB607FCF5CF808185FFF2CF5A
:10028000A889B9898C9185FFEDCFCE010E94C2006B
:10029000E7CFDF91CF91089580E090E0892B29F09E
:1002A0000E94B80081110C94000008953FB7F894A3
:1002B0008091730190917401A0917501B0917601C4
:1002C00026B5A89B05C02F3F19F00196A11DB11DB1
:1002D0003FBFBA2FA92F982F8827820F911DA11DEC
:1002E000B11DBC01CD0142E0660F771F881F991F29
:1002F0004A95D1F70895009769F0FC01019000201C
:10030000E9F73197AF01481B590BBC018AE791E02F
:100310000C945F0080E090E008958F929F92AF92DE
:10032000BF920F931F93CF93DF93CDB7DEB7A19703
:100330000FB6F894DEBF0FBECDBF19A2423008F44D
:100340004AE08E010F5D1F4F842E912CA12CB12C01
:10035000A50194010E94A804E62FB901CA01015029
:100360001109EA3014F4E05D01C0E95CD801EC93B6
:10037000232B242B252B61F7C8010E947B01A1961A
:100380000FB6F894DEBF0FBECDBFDF91CF911F91A6
:100390000F91BF90AF909F908F900895CF92DF9272
:1003A000EF92FF92CF93DF936B017C01E0917A0192
:1003B000F0917B010190F081E02D6DE28AE791E000
:1003C0000995EC0166277727CB016C197D098E0909
:1003D0009F094AE00E948D018C0F9D1FDF91CF91F4
:1003E000FF90EF90DF90CF900895CF93DF930E941E
:1003F0007B01EC0180E191E00E947B018C0F9D1F4D
:10040000DF91CF9108950C947B010E94D0041F923C
:100410000F920FB60F9211242F933F934F935F9338
:100420006F937F938F939F93AF93BF93EF93FF93BC
:100430008AE791E00E94C200FF91EF91BF91AF91D6
:100440009F918F917F916F915F914F913F912F91EC
:100450000F900FBE0F901F9018951F920F920FB61E
:100460000F9211242F938F939F93EF93FF93E0911B
:100470008A01F0918B018081E0919001F0919101CE
:1004800082FD12C09081809193018F5F8F732091C4
:100490009401821751F0E0919301F0E0E658FE4F8D
:1004A000958F8093930101C08081FF91EF919F917F
:1004B0008F912F910F900FBE0F901F9018951F9244
:1004C0000F920FB60F9211242F933F938F939F9308
:1004D000AF93BF9380916F0190917001A0917101D2
:1004E000B091720130916E0123E0230F2D3720F47B
:1004F0000196A11DB11D05C026E8230F0296A11D7E
:10050000B11D20936E0180936F0190937001A093B1
:100510007101B09372018091730190917401A09167
:100520007501B09176010196A11DB11D80937301F3
:1005300090937401A0937501B0937601BF91AF9130
:100540009F918F913F912F910F900FBE0F901F9011
:100550001895789484B5826084BD84B5816084BD2B
:1005600085B5826085BD85B5816085BD80916E0051
:10057000816080936E001092810080918100826082
:1005800080938100809181008160809381008091BF
:1005900080008160809380008091B10084608093AE
:1005A000B1008091B00081608093B00080917A00AA
:1005B000846080937A0080917A00826080937A00D0
:1005C00080917A00816080937A0080917A008068BF
:1005D00080937A001092C100E0918A01F0918B0122
:1005E00082E08083E0918601F09187011082E091A2
:1005F0008801F091890180E1808310929201E0915D
:100600008E01F0918F0186E08083E0918C01F09162
:100610008D01808180618083E0918C01F0918D015A
:10062000808188608083E0918C01F0918D018081D0
:1006300080688083E0918C01F0918D0180818F7DB5
:10064000808360E380E090E00E949A0460E381E0B0
:1006500090E00E949A0461E382E090E00E949A0494
:1006600060E383E090E00E949A0460E384E090E01D
:100670000E949A0460E385E090E00E949A0483E17E
:1006800091E00E94F50180E090E00E949204809346
:100690007701682F70E080E090E04AE00E948D01D1
:1006A00081E090E00E94920480937701682F70E0CF
:1006B00080E090E04AE00E948D0182E090E00E949C
:1006C000920480937701682F70E080E090E04AE028
:1006D0000E948D0180E191E00E947B0180E291E027
:1006E0000E94F50183E090E00E94920480937701DC
:1006F000682F70E080E090E04AE00E948D0184E085
:1007000090E00E94920480937701682F70E080E06F
:1007100090E04AE00E948D0185E090E00E94920402
:1007200080937701682F70E080E090E04AE00E94BB
:100730008D0180E191E00E947B0180E391E00E94C5
:10074000F5018DE391E00E94030287E491E00E94AD
:10075000030289E491E00E94030287E491E00E9491
:1007600003028DE491E00E94030287E491E00E947D
:10077000030281E591E00E94030287E491E00E9478
:10078000030285E591E00E94030287E491E00E9464
:100790000302109279011092780180917801909172
:1007A0007901803491050CF089C089E591E00E94BF
:1007B00003026091780170917901072E000C880B7B
:1007C000990B97FF03C00E94CE0103C04AE00E942C
:1007D0008D0187E491E00E9403026091780170919D
:1007E0007901072E000C880B990B97FF03C00E941C
:1007F000CE0103C04AE00E948D0187E491E00E948F
:1008000003026091780170917901072E000C880B2A
:10081000990B40E10E948D0187E491E00E94030260
:100820006091780170917901072E000C880B990B6B
:1008300048E00E948D0187E491E00E9403026091EC
:10084000780170917901072E000C880B990B42E01A
:100850000E948D0180E191E00E947B010E9456017F
:100860004B015C0188ECC82ED12CE12CF12C0E94AC
:100870005601DC01CB0188199909AA09BB09883EF8
:100880009340A105B10558F021E0C21AD108E10852
:10089000F10888EE880E83E0981EA11CB11CC114DB
:1008A000D104E104F10419F7809178019091790164
:1008B000019690937901809378016FCF88E491E05D
:1008C0000E94F5010E944C0138CFEAE7F1E0138263
:1008D000128288EE93E0A0E0B0E084839583A68343
:1008E000B78384E091E09183808385EC90E09587E5
:1008F000848784EC90E09787868780EC90E0918BEA
:10090000808B81EC90E0938B828B82EC90E0958BD6
:10091000848B86EC90E0978B868B118E128E138ED3
:10092000148E0895F999FECF92BD81BDF89A99274A
:1009300080B50895262FF999FECF1FBA92BD81BDCB
:1009400020BD0FB6F894FA9AF99A0FBE0196089551
:10095000A1E21A2EAA1BBB1BFD010DC0AA1FBB1FC3
:10096000EE1FFF1FA217B307E407F50720F0A21B35
:10097000B30BE40BF50B661F771F881F991F1A94A2
:1009800069F760957095809590959B01AC01BD01CC
:10099000CF010895EE0FFF1F0590F491E02D09940B
:0E09A00081E090E0F8940C94D504F894FFCF19
:1009AE0000000000E3005F00AC008A009E002A01F8
:1009BE000D0A006F757220616464726573733A007C
:1009CE006275726E657220616464726573733A004B
:1009DE004C697374656E696E672E2E2E004E4F2015
:1009EE00464F524D41540009004445430048455876
:1009FE00004F43540042494E002D2D2D2D2D2D2DEF
:0E0A0E002D2D2D316E6F77746F6461790000AD
:107E0000112484B714BE81FFF0D085E080938100F7
:107E100082E08093C00088E18093C10086E0809377
:107E2000C20080E18093C4008EE0C9D0259A86E02C
:107E300020E33CEF91E0309385002093840096BBD3
:107E4000B09BFECF1D9AA8958150A9F7CC24DD24C4
:107E500088248394B5E0AB2EA1E19A2EF3E0BF2EE7
:107E6000A2D0813461F49FD0082FAFD0023811F036
:107E7000013811F484E001C083E08DD089C08234E0
:107E800011F484E103C0853419F485E0A6D080C0E4
:107E9000853579F488D0E82EFF2485D0082F10E0AE
:107EA000102F00270E291F29000F111F8ED06801E7
:107EB0006FC0863521F484E090D080E0DECF843638
:107EC00009F040C070D06FD0082F6DD080E0C81688
:107ED00080E7D80618F4F601B7BEE895C0E0D1E017
:107EE00062D089930C17E1F7F0E0CF16F0E7DF06D8
:107EF00018F0F601B7BEE89568D007B600FCFDCFD4
:107F0000A601A0E0B1E02C9130E011968C91119780
:107F100090E0982F8827822B932B1296FA010C0160
:107F200087BEE89511244E5F5F4FF1E0A038BF0790
:107F300051F7F601A7BEE89507B600FCFDCF97BE46
:107F4000E89526C08437B1F42ED02DD0F82E2BD052
:107F50003CD0F601EF2C8F010F5F1F4F84911BD097
:107F6000EA94F801C1F70894C11CD11CFA94CF0C13
:107F7000D11C0EC0853739F428D08EE10CD085E9AC
:107F80000AD08FE07ACF813511F488E018D01DD067
:107F900080E101D065CF982F8091C00085FFFCCF94
:107FA0009093C60008958091C00087FFFCCF809118
:107FB000C00084FD01C0A8958091C6000895E0E648
:107FC000F0E098E1908380830895EDDF803219F02E
:107FD00088E0F5DFFFCF84E1DECF1F93182FE3DFCA
:107FE0001150E9F7F2DF1F91089580E0E8DFEE27F6
:047FF000FF270994CA
:027FFE00040479
:0400000300007E007B
:00000001FF
