:100000000C9434000C9451000C9451000C94510049
:100010000C9451000C9451000C9451000C9451001C
:100020000C9451000C9451000C9451000C94D0028B
:100030000C9451000C943B030C9451000C9451000F
:100040000C9451000C9451000C9497020C945100A4
:100050000C9451000C9451000C9451000C945100DC
:100060000C9451000C94510011241FBECFEFD8E026
:10007000DEBFCDBF11E0A0E0B1E0E6EDFAE002C0E6
:1000800005900D92A033B107D9F722E0A0E3B1E0CB
:1000900001C01D92AB3BB207E1F70E945F030C94D5
:1000A00069050C9400002A9A089520E137E29091A6
:1000B000C00095FD03C021503109C9F78093C600E7
:1000C0000895CF93DF93EC018991882319F00E9462
:1000D0005500FACFDF91CF910895CF93DF93EC01D4
:1000E00080E20E94550080E30E94550088E70E944C
:1000F0005500FE01EF2FFF27E295EF70ED5FFE4FF9
:1001000080810E945500ED2FFF27EF70FF27ED5FE4
:10011000FE4F80810E945500FE0124E0F695E79590
:100120002A95E1F7EF70FF27ED5FFE4F80810E9477
:100130005500CF70DD27CD5FDE4F8881DF91CF91F5
:100140000C945500CF93C82F0E94550080913A021D
:10015000ABE3B2E0EC9191E09E0F9C93E80FF0E0EE
:10016000E65CFE4FC083CF910895F999FECF92BD12
:1001700081BDF89A80B508958EBD8FEF81500DB482
:1001800007FC02C08111FACF8EB508958091B802A4
:10019000811137C081E080936F008093B702E091B6
:1001A0000201EF3F71F147E0E49FF0011124E95BA8
:1001B000FD4F80819181A281B381209145023091D0
:1001C0004602AD01421B530B9A0114161506CCF0E2
:1001D0004091840050918500232B41F49C018C3385
:1001E000910520F0CC978417950718F49A01245CA8
:1001F0003F4F3093890020938800B19A83E0809329
:100200006F0008950F931F938091450290914602CD
:100210000196909346028093450280914502909109
:100220004602A0E0B0E0DC01992788270091410256
:10023000109142022091430230914402B901A80179
:100240005C5D6B407F4F84179507A607B70728F4BE
:1002500080179107A207B307D8F440934102509347
:100260004202609343027093440280913D02909158
:100270003E02A0913F02B09140020196A11DB11D26
:1002800080933D0290933E02A0933F02B0934002C0
:100290001F910F910C94C6000F931F93B09B07C042
:1002A0000FB607FC04C0B09A0E940201F7CF2FB727
:1002B000F89460918400709185008091450290913E
:1002C0004602B09B02C077FF14C02FBFA0E0B0E091
:1002D000DC0199278827AB0160E070E08C019D016B
:1002E000042B152B262B372BC901B8011F910F9119
:1002F00008950196EACFCF92DF92EF92FF92CF93CB
:10030000DF93EC010E944C016B017C019E01A0E88F
:10031000BEE30E945105C60ED71EE81EF91E0E94BC
:100320004C016C157D058E059F05C8F3DF91CF91BB
:10033000FF90EF90DF90CF9008950F931F93882345
:10034000B1F00E944C0100913001109131012091D7
:10035000320130913301DC01CB01801B910BA20BE8
:10036000B30B813A9105A105B10558F316C00E945F
:100370004C010091300110913101209132013091F6
:100380003301DC01CB01801B910BA20BB30B813835
:100390009C40A105B10558F30EC0299A0E944C015A
:1003A0006093300170933101809332019093330157
:1003B0001F910F9108952998F1CFCF93DF93EB010F
:1003C0002A9880620E94BC0088810E94BC008981BA
:1003D0000E94BC008A810E94BC00DF91CF910C94E6
:1003E0005300CF93DF931F92CDB7DEB72A98806278
:1003F00069830E94BC006981862F0E94BC000F9017
:10040000DF91CF910C945300FF920F931F93CF93E2
:10041000DF93182FF92E062F80913401882331F0B5
:1004200080E00E949D0181E0809334016EE780E0CE
:100430000E94F10161E082E00E94F1012A9881EEC0
:100440000E94BC000E9453002A9880EA0E94BC00CF
:10045000C12FDF2D100F1C1721F089910E94BC00C5
:10046000FACF0E94530081E0DF91CF911F910F914D
:10047000FF900C949D018091340181110DC06FE7B4
:100480000E94F10162E082E00E94F10181E00E949D
:100490009D0181E08093340108950F931F93CF93C2
:1004A000DF932A988FEF0E94BC00C82F0E94530050
:1004B00080E00E949D0100E117E2DC2FD072C5FFB1
:1004C00002C0C0FF1AC0C4FD18C001501109A9F034
:1004D00085E190E0019749F0000000000000000075
:1004E000000000000000A895F5CF2A988FEF0E9429
:1004F000BC00C82F0E945300E0CF60E387E00E9459
:10050000F10180913401882321F0109234010E947E
:100510003B0281E090E0DD2311F080E090E09195D6
:1005200081959109DF91CF911F910F9108951F92AD
:100530000F920FB60F9211242F933F934F935F9317
:100540006F937F938F939F93AF93BF93CF93EF93CB
:10055000FF939091C000C091C600947149F48091BE
:10056000B9029091BA02892B19F08C2F0E94550084
:10057000E091B902F091BA028C2F0995FF91EF91A9
:10058000CF91BF91AF919F918F917F916F915F912B
:100590004F913F912F910F900FBE0F901F90189584
:1005A0001F920F920FB60F921124CF92DF92EF920B
:1005B000FF920F931F932F933F934F935F936F93EC
:1005C0007F938F939F93AF93BF93CF93EF93FF93BB
:1005D00081E080936F00C7E0A0910201CA9FD00123
:1005E0001124A95BBD4F1496ED91FC9115971596BA
:1005F0001C921E92149716968C9180930201109271
:10060000B70278940995F8940E944C01E091020198
:10061000EF3F89F0CE9FF0011124E95BFD4F00818F
:1006200011812281338168017901C61AD70AE80A4B
:10063000F90AF7FCD1CF1092B8028091B70281116C
:1006400002C00E94C600FF91EF91CF91BF91AF9180
:100650009F918F917F916F915F914F913F912F91DA
:100660001F910F91FF90EF90DF90CF900F900FBEF2
:100670000F901F9018951F920F920FB60F92112492
:100680002F933F934F935F936F937F938F939F939A
:10069000AF93BF93EF93FF930E940201FF91EF91FD
:1006A000BF91AF919F918F917F916F915F914F918A
:1006B0003F912F910F900FBE0F901F901895CF93E1
:1006C000DF93CDB7DEB7A6970FB6F894DEBF0FBEA7
:1006D000CDBF60E380E090E00E94430560E381E0ED
:1006E00090E00E94430561E382E090E00E944305B0
:1006F00060E383E090E00E94430560E384E090E0E3
:100700000E94430560E385E090E00E944305AFB698
:10071000B5B60FB6F894A895809160008861809373
:100720006000109260000FBE1092C50080E18093BF
:10073000C40082E08093C00088E98093C10086E015
:100740008093C2001092800091E09093810090937A
:100750006F0024B1286224B92498229A1CBC80E539
:100760008CBD9DBD8DB58EB5219A229A80E00E94E8
:100770009D010E94530085E090E00E947B016FE79D
:1007800084E00E94F1012A9884E00E94BC0080E08D
:100790000E94BC008EA30E9453008EA18F37E1F40B
:1007A00066E286E00E94F10163E08CE10E94F101C3
:1007B00064E08DE10E94F10160E787E00E94F101B1
:1007C0006AE285E00E94F10161E083E00E94F101AC
:1007D00063E081E00E94F1017894CE0101966C0102
:1007E00000E010E07C01C8010E94B500F601819391
:1007F0006F010F5F1F4F06301105A9F7B7018BE09E
:100800000E94DD01BE016C5F7F4F80E10E94DD012F
:10081000BE016C5F7F4F8AE00E94DD0183E191E0C1
:100820000E9461008A2D90E00E946D0089E191E0B4
:100830000E9461008B2D90E00E946D0082E291E0A9
:100840000E94610089810E9455008A810E945500A2
:100850008B810E9455008DE00E9455008AE00E9425
:1008600055000E943B0282EA90E09093BA02809386
:10087000B9020E2D9924939488248A9490E2792EBB
:100880002A9887E10E94BC0080E00E94BC008EA3F1
:100890000E9453008EA180FD41C00E944C016093D4
:1008A000350170933601809337019093380160E4ED
:1008B00087E00E94F1012A9880E60E94BC0080E057
:1008C0000E94BC00182F0E9453002A9881E60E94C3
:1008D000BC0067015701612E6E0C6A1439F080E08C
:1008E0000E94BC00F50181935F01F7CF0E94530085
:1008F000898190910101891303C010923C020EC0BE
:1009000080930101FFEFCF1ADF0A8C2D801B811726
:10091000A0F7F60180810E945500F4CF80913B0240
:10092000882309F4ADCF8091390191E0980F90931D
:100930003901898384E70E9455000E944C0120916F
:100940003501309136014091370150913801DC0179
:10095000CB01821B930BA40BB50B81309442A44FA7
:10096000B10510F09092000180910001882329F1D7
:100970008DA261E0CE0185960E9404020E944D0284
:1009800084E690E00E947B0180E090E00E94B50048
:1009900089A381E090E00E94B5008AA382E090E004
:1009A0000E94B5008BA37CA264E0CE0181960E94D8
:1009B00004020E944D02109200010E944C016093BB
:1009C00035017093360180933701909338018091FF
:1009D0003C028F5F80933C02F89480913B0290E050
:1009E0008032910514F08FE190E0182F78942091D7
:1009F0003C02223021F44F9729F41DE103C023303B
:100A000009F411E060913A02C12ED12C70E0CB01C3
:100A1000809590959927019656018C159D0508F4AF
:100A20005C01665C7E4FA501CE0102960E946005C6
:100A3000C5010196A6014A195B096AE371E08E0DB2
:100A40009F1D0E946005F89480913B02811B80935A
:100A50003B0280913A02810F80933A02789480E8B9
:100A6000D82E1F5FDA94DD2009F40ACF84E090E0ED
:100A70000E947B01612FC7010E9404020E944D0267
:100A8000892B81F7FDCE262FF999FECF1FBA92BD93
:100A900081BD20BD0FB6F894FA9AF99A0FBE01965F
:100AA0000895A29FB001B39FC001A39F700D811D47
:100AB0001124911DB29F700D811D1124911D089567
:100AC000FB01DC0102C001900D9241505040D8F76B
:060AD0000895F894FFCF29
:100AD60001FFFF30313233343536373839616263DE
:100AE600646566535245473A002C204D43554352A0
:100AF6003A002C206F757220616464723A200000FF
:107E0000112484B714BE81FFF0D085E080938100F7
:107E100082E08093C00088E18093C10086E0809377
:107E2000C20080E18093C4008EE0C9D0259A86E02C
:107E300020E33CEF91E0309385002093840096BBD3
:107E4000B09BFECF1D9AA8958150A9F7CC24DD24C4
:107E500088248394B5E0AB2EA1E19A2EF3E0BF2EE7
:107E6000A2D0813461F49FD0082FAFD0023811F036
:107E7000013811F484E001C083E08DD089C08234E0
:107E800011F484E103C0853419F485E0A6D080C0E4
:107E9000853579F488D0E82EFF2485D0082F10E0AE
:107EA000102F00270E291F29000F111F8ED06801E7
:107EB0006FC0863521F484E090D080E0DECF843638
:107EC00009F040C070D06FD0082F6DD080E0C81688
:107ED00080E7D80618F4F601B7BEE895C0E0D1E017
:107EE00062D089930C17E1F7F0E0CF16F0E7DF06D8
:107EF00018F0F601B7BEE89568D007B600FCFDCFD4
:107F0000A601A0E0B1E02C9130E011968C91119780
:107F100090E0982F8827822B932B1296FA010C0160
:107F200087BEE89511244E5F5F4FF1E0A038BF0790
:107F300051F7F601A7BEE89507B600FCFDCF97BE46
:107F4000E89526C08437B1F42ED02DD0F82E2BD052
:107F50003CD0F601EF2C8F010F5F1F4F84911BD097
:107F6000EA94F801C1F70894C11CD11CFA94CF0C13
:107F7000D11C0EC0853739F428D08EE10CD085E9AC
:107F80000AD08FE07ACF813511F488E018D01DD067
:107F900080E101D065CF982F8091C00085FFFCCF94
:107FA0009093C60008958091C00087FFFCCF809118
:107FB000C00084FD01C0A8958091C6000895E0E648
:107FC000F0E098E1908380830895EDDF803219F02E
:107FD00088E0F5DFFFCF84E1DECF1F93182FE3DFCA
:107FE0001150E9F7F2DF1F91089580E0E8DFEE27F6
:047FF000FF270994CA
:027FFE00040479
:0400000300007E007B
:00000001FF
