:100000000C945D000C9485000C9485000C949C0469
:100010000C949C040C949C040C9485000C94850016
:100020000C9485000C9485000C9485000C9485003C
:100030000C9485000C9485000C9485000C9485002C
:100040000C9452040C9485000C9420040C94FA0334
:100050000C9485000C9485000C9485000C9485000C
:100060000C9485000C94850000000008000201003B
:100070000003040700000000000000000000000072
:10008000250028002B0000000000240027002A0083
:10009000040404040404040402020202020203032E
:1000A0000303030301020408102040800102040836
:1000B0001020010204081020A60411241FBECFEF57
:1000C000D8E0DEBFCDBF11E0A0E0B1E0EEE7FFE099
:1000D00002C005900D92A03DB107D9F722E0A0ED36
:1000E000B1E001C01D92AE38B207E1F710E0CDE5F6
:1000F000D0E004C02197FE010E94A907CC35D107AA
:10010000C9F70E94F5040C94BD070C94000090E020
:10011000FC01EC55FF4F2491FC01E057FF4F849107
:10012000882399F090E0880F991FFC01EA57FF4F50
:10013000A591B491FC01E458FF4F859194918FB73C
:10014000F894EC91E22BEC938FBF0895CF92DF925D
:10015000FF920F931F93CF93DF931F92CDB7DEB71C
:10016000F82E8B016C018C2D8F198417A0F48091CF
:10017000830290918402D6016D916D01DC01ED91B5
:10018000FC910190F081E02D49830995F80181935C
:100190008F014981E8CF0F90DF91CF911F910F918F
:1001A000FF90DF90CF900895CF92DF92EF92FF9271
:1001B0000F931F93CF93DF936C017A018B01C0E003
:1001C000D0E0CE15DF0589F0D8016D918D01D60103
:1001D000ED91FC910190F081E02DC6010995892BEC
:1001E00011F47E0102C02196ECCFC701DF91CF91BF
:1001F0001F910F91FF90EF90DF90CF900895FC0139
:10020000918D828D981761F0828DDF01A80FB11D4D
:100210005D968C91928D9F5F9F73928F90E0089571
:100220008FEF9FEF0895FC01918D828D981731F02B
:10023000828DE80FF11D858D90E008958FEF9FEF7F
:100240000895FC01918D228D892F90E0805C9F4F55
:10025000821B91098F739927089581EE91E00E9486
:10026000210121E0892B09F420E0822F0895FC016F
:10027000848DDF01A80FB11DA35ABF4F2C91848D2F
:1002800090E001968F739927848FA689B7892C9364
:10029000A089B1898C9180648C93938D848D9813FF
:1002A00006C00288F389E02D80818F7D80830895C8
:1002B000EF92FF920F931F93CF93DF93EC0181E0B6
:1002C000888F9B8D8C8D981305C0E889F989808172
:1002D00085FD24C0F62E0B8D10E00F5F1F4F0F73AE
:1002E0001127E02E8C8DE8120CC00FB607FCFACF58
:1002F000E889F989808185FFF5CFCE010E94370119
:10030000F1CF8B8DFE01E80FF11DE35AFF4FF08214
:100310000B8FEA89FB898081806207C0EE89FF89A3
:100320006083E889F98980818064808381E090E03E
:10033000DF91CF911F910F91FF90EF900895CF9390
:10034000DF93EC01888D8823C9F0EA89FB898081DD
:1003500085FD05C0A889B9898C9186FD0FC00FB6AF
:1003600007FCF5CF808185FFF2CFA889B9898C91F0
:1003700085FFEDCFCE010E943701E7CFDF91CF910E
:10038000089580E090E0892B29F00E942D018111D1
:100390000C940000089590E0FC01E859FF4F34915F
:1003A000FC01EC55FF4F2491FC01E057FF4FE49115
:1003B000EE2309F43BC0332339F1333091F038F4A4
:1003C0003130A9F0323001F584B58F7D12C037305D
:1003D00091F03830A1F03430B9F4809180008F7DF5
:1003E00003C0809180008F77809380000DC084B51A
:1003F0008F7784BD09C08091B0008F7703C0809152
:10040000B0008F7D8093B000F0E0EE0FFF1FE45846
:10041000FF4FA591B4918FB7F894EC91611103C08F
:1004200020952E2301C02E2B2C938FBF089561E0C1
:10043000809180020C94CB0160E0809180020C944A
:10044000CB010F931F93CF93DF93C82FD62F0E941A
:100450001C020EE712E0D80115968D919C9116971B
:10046000DC01ED91FC91CF716C2F60620190F08105
:10047000E02D0995F80185819681DC01ED91FC91D3
:100480000190F081E02D6D2F0995DF91CF911F91A3
:100490000F910C941702CF92DF92FF920F931F934C
:1004A000CF93DF931F92CDB7DEB7F82E162F042F10
:1004B00079830E941C028091830290918402DC0166
:1004C000ED91FC916F2D6F7160620190F081E02DD4
:1004D0000995F12EC12E7981D72E8C2D8F19801779
:1004E00078F48091830290918402F60161916F010A
:1004F000DC01ED91FC910190F081E02D0995EDCFAB
:100500000F90DF91CF911F910F91FF90DF90CF90CF
:100510000C9417020F931F93CF93C82F8B010E9447
:100520001C028091830290918402DC01ED91FC9188
:100530006C2F6F710190F081E02D099541E0B801B9
:10054000C8010E94A600CF911F910F910C94170231
:100550003FB7F8948091D8019091D901A091DA0128
:10056000B091DB0126B5A89B05C02F3F19F001967D
:10057000A11DB11D3FBFBA2FA92F982F8827820F29
:10058000911DA11DB11DBC01CD0142E0660F771F79
:10059000881F991F4A95D1F708958F929F92AF9225
:1005A000BF92CF92DF92EF92FF926B017C010E948B
:1005B000A8024B015C01C114D104E104F104F1F083
:1005C0000E94A802DC01CB0188199909AA09BB097C
:1005D000883E9340A105B10570F321E0C21AD1080D
:1005E000E108F10888EE880E83E0981EA11CB11C7A
:1005F000C114D104E104F10419F7DDCFFF90EF90AD
:10060000DF90CF90BF90AF909F908F9008952FB7BD
:10061000F8946091D4017091D5018091D6019091A8
:10062000D7012FBF08950895CF93CFB7F894809145
:10063000D201811124C0EAE9F0E08491EEEAF0E011
:100640009491E82FF0E0EE0FFF1FEA57FF4FA591BE
:10065000B491EC91E92321F461E08AE00E94CB019E
:100660008AE00E9487008CB580618CBD8CB5806467
:100670008CBD8DE00E9487008BE00E9487008091F6
:10068000D2018F5F8093D201CFBF8CB5837F8CBDA9
:100690008CB58C7F81608CBD8DB58E7F8DBDCF91EB
:1006A00008956EBD00000DB407FEFDCF8EB5089510
:1006B00061E086E00E94CB0161E087E00E94CB010F
:1006C00068EE73E080E090E00C94CD0280918602A9
:1006D00090918702A0918802B091890240918A028C
:1006E00050918B0260918C0270918D02841B950B4E
:1006F000A60BB70B81379449A105B10510F00C94F6
:1007000058030895009769F0FC0101900020E9F773
:100710003197AF01481B590BBC0181EE91E00C945D
:10072000D40080E090E008958F929F92AF92BF92A4
:100730000F931F93CF93DF93CDB7DEB7A1970FB67B
:10074000F894DEBF0FBECDBF19A2423008F44AE0D4
:100750008E010F5D1F4F842E912CA12CB12CA50171
:1007600094010E948707E62FB901CA0101501109BF
:10077000EA3014F4E05D01C0E95CD801EC93232B6E
:10078000242B252B61F7C8010E948203A1960FB686
:10079000F894DEBF0FBECDBFDF91CF911F910F91B7
:1007A000BF90AF909F908F900895CF93DF930E945A
:1007B0008203EC018CE191E00E9482038C0F9D1F6B
:1007C000DF91CF910895CF93DF93682F70E080E0A1
:1007D00090E04AE00E949403EC018CE191E00E94D9
:1007E00082038C0F9D1FDF91CF9108950E94AF0768
:1007F0000C9479071F920F920FB60F9211242F932A
:100800003F934F935F936F937F938F939F93AF9398
:10081000BF93EF93FF9381EE91E00E943701FF9128
:10082000EF91BF91AF919F918F917F916F915F9168
:100830004F913F912F910F900FBE0F901F901895E1
:100840001F920F920FB60F9211242F938F939F93A5
:10085000EF93FF93E091F101F091F2018081E0913B
:10086000F701F091F80182FD12C090818091FA01A8
:100870008F5F8F732091FB01821751F0E091FA0195
:10088000F0E0EF51FE4F958F8093FA0101C0808117
:10089000FF91EF919F918F912F910F900FBE0F902D
:1008A0001F9018951F920F920FB60F9211242F933D
:1008B0003F938F939F93AF93BF938091D401909177
:1008C000D501A091D601B091D7013091D30123E099
:1008D000230F2D3720F40196A11DB11D05C026E878
:1008E000230F0296A11DB11D2093D3018093D40143
:1008F0009093D501A093D601B093D7018091D801F0
:100900009091D901A091DA01B091DB010196A11D6E
:10091000B11D8093D8019093D901A093DA01B093CF
:10092000DB01BF91AF919F918F913F912F910F90DC
:100930000FBE0F901F9018951F920F920FB60F9237
:1009400011240F900FBE0F901F901895E1EEF1E06B
:100950001382128288EE93E0A0E0B0E08483958356
:10096000A683B78380E191E09183808385EC90E05A
:100970009587848784EC90E09787868780EC90E069
:10098000918B808B81EC90E0938B828B82EC90E05A
:10099000958B848B86EC90E0978B868B118E128ED4
:1009A000138E148EEEE7F2E083E0878388E0818384
:1009B00087E0828381E0838380E1848316821582CD
:1009C0000E94070360938A0270938B0280938C02CB
:1009D00090938D020E9407036093860270938702B2
:1009E00080938802909389020895CF93DF9300D07B
:1009F00000D000D0CDB7DEB7789484B5826084BDD6
:100A000084B5816084BD85B5826085BD85B5816012
:100A100085BD80916E00816080936E001092810090
:100A2000809181008260809381008091810081604B
:100A3000809381008091800081608093800080910C
:100A4000B10084608093B1008091B0008160809398
:100A5000B00080917A00846080937A0080917A005F
:100A6000826080937A0080917A00816080937A001E
:100A700080917A00806880937A001092C100E091A2
:100A8000F101F091F20182E08083E091ED01F091BB
:100A9000EE011082E091EF01F091F00180E180839E
:100AA0001092F901E091F501F091F60186E0808362
:100AB000E091F301F091F401808180618083E09105
:100AC000F301F091F401808188608083E091F3016B
:100AD000F091F401808180688083E091F301F091CE
:100AE000F40180818F7D80838FE191E00E94D503A6
:100AF00060E380E090E00E94F80360E381E090E032
:100B00000E94F80362E382E090E00E94F80360E351
:100B100083E090E00E94F80360E384E090E00E94AC
:100B2000F80360E385E090E00E94F80386E00E940D
:100B3000870087E00E9487000E9458031092DF011F
:100B400088E291E00E94D50380E090E00E94710766
:100B50008983682F70E080E090E04AE00E9494036F
:100B600081E090E00E9471078A83682F70E080E046
:100B700090E04AE00E94940382E090E00E947107B6
:100B80008B830E94E30385E391E00E94D50383E019
:100B900090E00E9471078C83682F70E080E090E005
:100BA0004AE00E94940384E090E00E9471078D83E4
:100BB000682F70E080E090E04AE00E94940385E0B6
:100BC00090E00E9471078E830E94E3038AE0809385
:100BD000800289E080937F0280E091E0909384021C
:100BE0008093830289E00E948700809180020E94A6
:100BF000870060E080917F020E94CB010E94170273
:100C00008091830290918402DC01ED91FC9102803D
:100C1000F381E02D09956FE784E00E94210266E2EE
:100C200086E00E94210263E08CE10E94210264E0E0
:100C30008DE10E94210260E787E00E9421026AE2C2
:100C400085E00E94210261E083E00E94210263E0CE
:100C500081E00E94210285E491E00E94820380915C
:100C600085020E94E30360E080917F020E94CB0135
:100C700040918502BE016F5F7F4F8BE00E944B0267
:100C800061E080917F020E94CB014091850264E582
:100C900071E08AE00E944B024091850264E571E0B8
:100CA00080E10E944B0283E08093820288E591E01C
:100CB0000E948203809182020E94E3038AE2809371
:100CC000810287E691E00E948203809181020E9466
:100CD000E3036091810285E00E942102609182021B
:100CE00081E10E9421026091820282E10E94210240
:100CF00010927E0260E080917F020E94CB016FE73C
:100D000080E00E94210261E080917F020E94CB017D
:100D100060E387E00E9421020E941C02809183020E
:100D200090918402DC01ED91FC910190F081E02D25
:100D300062EE09950E941702DD24D394EDB6FEB64B
:100D40000E94660381E791E00E94D503BE016F5FB8
:100D50007F4F87E00E948A02898186FF35C08EE737
:100D600091E00E94D5038091820290E00196EDB758
:100D7000FEB7E81BF90B0FB6F894FEBF0FBEEDBF30
:100D80000DB71EB70F5F1F4F0E941C028091830298
:100D900090918402DC01ED91FC910190F081E02DB5
:100DA00061E6099540918202B801C8010E94A6003F
:100DB0000E94170260E487E00E94210286E891E029
:100DC0000E948203580113C0BE016F5F7F4F87E10D
:100DD0000E948A02898180FFC2CF0E946603A89583
:100DE0006AE070E080E090E00E94CD02AFCF809199
:100DF000820290E09501201B310B2817390774F40B
:100E0000F50161915F01E091E101F091E201019052
:100E1000F081E02D81EE91E00995E9CF8EE191E03E
:100E20000E94D50385E991E00E94D503809182025A
:100E3000F801E80FF11D108284EA91E00E9482031C
:100E4000C8010E94D50362EB71E0C8010E94B4079B
:100E5000892B29F40E94580386EB91E037C064E5A2
:100E600071E0C8010E94B407892BA9F40E9407030E
:100E700060938A0270938B0280938C0290938D0210
:100E8000D092E0010E94580360E086E00E94CB010E
:100E90008EEB91E01BC064EC71E0C8010E94B407C6
:100EA000892BB1F40E94070360938A0270938B022E
:100EB00080938C0290938D02D092E0010E9458039F
:100EC00060E087E00E94CB0188EC91E00E94D503AE
:100ED000A8950FB6F894FEBE0FBEEDBE0E94C101EC
:100EE0002DCFF999FECF92BD81BDF89A992780B593
:100EF0000895262FF999FECF1FBA92BD81BD20BD5E
:100F00000FB6F894FA9AF99A0FBE01960895A1E2E5
:100F10001A2EAA1BBB1BFD010DC0AA1FBB1FEE1F73
:100F2000FF1FA217B307E407F50720F0A21BB30BBE
:100F3000E40BF50B661F771F881F991F1A9469F73A
:100F400060957095809590959B01AC01BD01CF0196
:100F50000895EE0FFF1F0590F491E02D099481E0B4
:100F600090E0F8940C94BD07FB01DC018D91019099
:0E0F700080190110D9F3990B0895F894FFCF62
:100F7E0006010000000051031403130300000000DB
:100F8E005801D4002101FF0013019F010D0A0073C7
:100F9E00657475702E2E2E006F75722061646472EA
:100FAE006573733A006275726E6572206164647265
:100FBE006573733A00616464726573732073697A42
:100FCE00653A2000303031007061796C6F616420B9
:100FDE0073697A653A20006368616E6E656C3A20BB
:100FEE00004C697374656E696E672E2E2E00446117
:100FFE0074612E2E2E004461746120636F6E7465D1
:10100E006E743A20003D3D3D3D3D3D3D3D3D3D3DF7
:10101E003D3D3D0052657475726E20646174613A97
:10102E0020003030300053746F702E2E2E0055700D
:10103E002E2E2E0030303200446F776E2E2E2E0064
:00000001FF
