:100000000C945D000C9485000C9485000C9486047F
:100010000C9486040C9486040C9485000C94850042
:100020000C9485000C9485000C9485000C9485003C
:100030000C9485000C9485000C9485000C9485002C
:100040000C943C040C9485000C940A040C94E40376
:100050000C9485000C9485000C9485000C9485000C
:100060000C9485000C94850000000008000201003B
:100070000003040700000000000000000000000072
:10008000250028002B0000000000240027002A0083
:10009000040404040404040402020202020203032E
:1000A0000303030301020408102040800102040836
:1000B0001020010204081020900411241FBECFEF6D
:1000C000D8E0DEBFCDBF11E0A0E0B1E0E8EDFFE099
:1000D00002C005900D92A43FB107D9F722E0A4EF2A
:1000E000B1E001C01D92A23BB207E1F710E0CDE5FF
:1000F000D0E004C02197FE010E94D607CC35D1077D
:10010000C9F70E94DF040C94EA070C94000090E009
:10011000FC01EC55FF4F2491FC01E057FF4F849107
:10012000882399F090E0880F991FFC01EA57FF4F50
:10013000A591B491FC01E458FF4F859194918FB73C
:10014000F894EC91E22BEC938FBF0895CF92DF925D
:10015000FF920F931F93CF93DF931F92CDB7DEB71C
:10016000F82E8B016C018C2D8F198417A0F48091CF
:10017000A7029091A802D6016D916D01DC01ED916D
:10018000FC910190F081E02D49830995F80181935C
:100190008F014981E8CF0F90DF91CF911F910F918F
:1001A000FF90DF90CF900895CF92DF92EF92FF9271
:1001B0000F931F93CF93DF936C017A018B01C0E003
:1001C000D0E0CE15DF0589F0D8016D918D01D60103
:1001D000ED91FC910190F081E02DC6010995892BEC
:1001E00011F47E0102C02196ECCFC701DF91CF91BF
:1001F0001F910F91FF90EF90DF90CF900895FC0139
:10020000918D828D981761F0828DDF01A80FB11D4D
:100210005D968C91928D9F5F9F73928F90E0089571
:100220008FEF9FEF0895FC01918D828D981731F02B
:10023000828DE80FF11D858D90E008958FEF9FEF7F
:100240000895FC01918D228D892F90E0805C9F4F55
:10025000821B91098F739927089585E092E00E948F
:10026000210121E0892B09F420E0822F0895FC016F
:10027000848DDF01A80FB11DA35ABF4F2C91848D2F
:1002800090E001968F739927848FA689B7892C9364
:10029000A089B1898C9180648C93938D848D9813FF
:1002A00006C00288F389E02D80818F7D80830895C8
:1002B000EF92FF920F931F93CF93DF93EC0181E0B6
:1002C000888F9B8D8C8D981305C0E889F989808172
:1002D00085FD24C0F62E0B8D10E00F5F1F4F0F73AE
:1002E0001127E02E8C8DE8120CC00FB607FCFACF58
:1002F000E889F989808185FFF5CFCE010E94370119
:10030000F1CF8B8DFE01E80FF11DE35AFF4FF08214
:100310000B8FEA89FB898081806207C0EE89FF89A3
:100320006083E889F98980818064808381E090E03E
:10033000DF91CF911F910F91FF90EF900895CF9390
:10034000DF93EC01888D8823C9F0EA89FB898081DD
:1003500085FD05C0A889B9898C9186FD0FC00FB6AF
:1003600007FCF5CF808185FFF2CFA889B9898C91F0
:1003700085FFEDCFCE010E943701E7CFDF91CF910E
:10038000089580E090E0892B29F00E942D018111D1
:100390000C940000089590E0FC01E859FF4F34915F
:1003A000FC01EC55FF4F2491FC01E057FF4FE49115
:1003B000EE2309F43BC0332339F1333091F038F4A4
:1003C0003130A9F0323001F584B58F7D12C037305D
:1003D00091F03830A1F03430B9F4809180008F7DF5
:1003E00003C0809180008F77809380000DC084B51A
:1003F0008F7784BD09C08091B0008F7703C0809152
:10040000B0008F7D8093B000F0E0EE0FFF1FE45846
:10041000FF4FA591B4918FB7F894EC91611103C08F
:1004200020952E2301C02E2B2C938FBF089561E0C1
:100430008091A4020C94CB0160E08091A4020C9402
:10044000CB010F931F93CF93DF93C82FD62F0E941A
:100450001C0202EA12E0D80115968D919C91169724
:10046000DC01ED91FC91CF716C2F60620190F08105
:10047000E02D0995F80185819681DC01ED91FC91D3
:100480000190F081E02D6D2F0995DF91CF911F91A3
:100490000F910C941702CF92DF92FF920F931F934C
:1004A000CF93DF931F92CDB7DEB7F82E162F042F10
:1004B00079830E941C028091A7029091A802DC011E
:1004C000ED91FC916F2D6F7160620190F081E02DD4
:1004D0000995F12EC12E7981D72E8C2D8F19801779
:1004E00078F48091A7029091A802F60161916F01C2
:1004F000DC01ED91FC910190F081E02D0995EDCFAB
:100500000F90DF91CF911F910F91FF90DF90CF90CF
:100510000C9417020F931F93CF93C82F8B010E9447
:100520001C028091A7029091A802DC01ED91FC9140
:100530006C2F6F710190F081E02D099541E0B801B9
:10054000C8010E94A600CF911F910F910C94170231
:100550003FB7F8948091FC019091FD01A091FE01BC
:10056000B091FF0126B5A89B05C02F3F19F0019659
:10057000A11DB11D3FBFBA2FA92F982F8827820F29
:10058000911DA11DB11DBC01CD0142E0660F771F79
:10059000881F991F4A95D1F708958F929F92AF9225
:1005A000BF92CF92DF92EF92FF926B017C010E948B
:1005B000A8024B015C01C114D104E104F104F1F083
:1005C0000E94A802DC01CB0188199909AA09BB097C
:1005D000883E9340A105B10570F321E0C21AD1080D
:1005E000E108F10888EE880E83E0981EA11CB11C7A
:1005F000C114D104E104F10419F7DDCFFF90EF90AD
:10060000DF90CF90BF90AF909F908F9008952FB7BD
:10061000F8946091F8017091F9018091FA0190913C
:10062000FB012FBF08950895CF93CFB7F894809121
:10063000F601811124C0EAE9F0E08491EEEAF0E0ED
:100640009491E82FF0E0EE0FFF1FEA57FF4FA591BE
:10065000B491EC91E92321F461E08AE00E94CB019E
:100660008AE00E9487008CB580618CBD8CB5806467
:100670008CBD8DE00E9487008BE00E9487008091F6
:10068000F6018F5F8093F601CFBF8CB5837F8CBD61
:100690008CB58C7F81608CBD8DB58E7F8DBDCF91EB
:1006A00008956EBD00000DB407FEFDCF8EB5089510
:1006B000009769F0FC0101900020E9F73197AF0144
:1006C000481B590BBC0185E092E00C94D40080E0FB
:1006D00090E008958F929F92AF92BF920F931F93D5
:1006E000CF93DF93CDB7DEB7A1970FB6F894DEBFF7
:1006F0000FBECDBF19A2423008F44AE08E010F5D53
:100700001F4F842E912CA12CB12CA50194010E9485
:10071000B407E62FB901CA0101501109EA3014F4F7
:10072000E05D01C0E95CD801EC93232B242B252B41
:1007300061F7C8010E945803A1960FB6F894DEBF76
:100740000FBECDBFDF91CF911F910F91BF90AF90A2
:100750009F908F900895CF93DF930E945803EC01F0
:100760008CE191E00E9458038C0F9D1FDF91CF9187
:1007700008951092040260E086E00E94CB0160E0E0
:1007800087E00E94CB018FE191E00E94AB0368EE0D
:1007900073E080E090E00C94CD02CF93DF93682F5C
:1007A00070E080E090E04AE00E946A03EC018CE196
:1007B00091E00E9458038C0F9D1FDF91CF91089507
:1007C0000E94DC070C94A6071F920F920FB60F929F
:1007D00011242F933F934F935F936F937F938F9346
:1007E0009F93AF93BF93EF93FF9385E092E00E94B6
:1007F0003701FF91EF91BF91AF919F918F917F91C1
:100800006F915F914F913F912F910F900FBE0F907D
:100810001F9018951F920F920FB60F9211242F93CD
:100820008F939F93EF93FF93E0911502F09116023F
:100830008081E0911B02F0911C0282FD12C0908128
:1008400080911E028F5F8F7320911F02821751F0DB
:10085000E0911E02F0E0EB5FFD4F958F80931E024A
:1008600001C08081FF91EF919F918F912F910F9007
:100870000FBE0F901F9018951F920F920FB60F92F8
:1008800011242F933F938F939F93AF93BF938091A6
:10089000F8019091F901A091FA01B091FB0130911A
:1008A000F70123E0230F2D3720F40196A11DB11D80
:1008B00005C026E8230F0296A11DB11D2093F70164
:1008C0008093F8019093F901A093FA01B093FB0192
:1008D0008091FC019091FD01A091FE01B091FF017A
:1008E0000196A11DB11D8093FC019093FD01A09381
:1008F000FE01B093FF01BF91AF919F918F913F9106
:100900002F910F900FBE0F901F9018951F920F926E
:100910000FB60F9211240F900FBE0F901F901895D5
:10092000E5E0F2E01382128288EE93E0A0E0B0E00E
:1009300084839583A683B78380E191E0918380834C
:1009400085EC90E09587848784EC90E09787868794
:1009500080EC90E0918B808B81EC90E0938B828B8C
:1009600082EC90E0958B848B86EC90E0978B868B65
:10097000118E128E138E148EE2EAF2E083E08783EA
:1009800088E0818387E0828381E0838380E18483C0
:10099000168215820E9407036093AE027093AF0225
:1009A0008093B0029093B1020E9407036093AA0261
:1009B0007093AB028093AC029093AD020895CF93F5
:1009C000DF9300D000D000D0CDB7DEB7789484B5E7
:1009D000826084BD84B5816084BD85B5826085BD3B
:1009E00085B5816085BD80916E00816080936E00C9
:1009F00010928100809181008260809381008091BB
:100A0000810081608093810080918000816080936B
:100A100080008091B10084608093B1008091B0002B
:100A200081608093B00080917A00846080937A0026
:100A300080917A00826080937A0080917A00816050
:100A400080937A0080917A00806880937A00109277
:100A5000C100E0911502F091160282E08083E091DE
:100A60001102F09112021082E0911302F09114022F
:100A700080E1808310921D02E0911902F0911A0228
:100A800086E08083E0911702F091180280818061F6
:100A90008083E0911702F091180280818860808342
:100AA000E0911702F0911802808180688083E091C4
:100AB0001702F091180280818F7D808387E291E098
:100AC0000E94AB0360E380E090E00E94E20360E3F9
:100AD00081E090E00E94E20363E382E090E00E9404
:100AE000E20360E383E090E00E94E20360E384E0DD
:100AF00090E00E94E20360E385E090E00E94E20360
:100B000086E00E94870087E00E9487000E94B90368
:100B10001092030280E391E00E94AB0380E090E03A
:100B20000E949E078983682F70E080E090E04AE091
:100B30000E946A0381E090E00E949E078A83682FEA
:100B400070E080E090E04AE00E946A0382E090E07A
:100B50000E949E078B830E94CD038DE391E00E944B
:100B6000AB0383E090E00E949E078C83682F70E0C7
:100B700080E090E04AE00E946A0384E090E00E94F6
:100B80009E078D83682F70E080E090E04AE00E942D
:100B90006A0385E090E00E949E078E830E94CD0349
:100BA0008AE08093A40289E08093A30280E091E030
:100BB0009093A8028093A70289E00E948700809109
:100BC000A4020E94870060E08091A3020E94CB01F2
:100BD0000E9417028091A7029091A802DC01ED917A
:100BE000FC910280F381E02D09956FE784E00E947B
:100BF000210266E286E00E94210263E08CE10E940D
:100C0000210264E08DE10E94210260E787E00E94FA
:100C100021026AE285E00E94210261E083E00E94F5
:100C2000210263E081E00E9421028DE491E00E94B4
:100C300058038091A9020E94CD0360E08091A30235
:100C40000E94CB014091A902BE016F5F7F4F8BE0F4
:100C50000E944B0261E08091A3020E94CB0140916F
:100C6000A9026CE571E08AE00E944B024091A90262
:100C70006CE571E080E10E944B0283E08093A60264
:100C800080E691E00E9458038091A6020E94CD0365
:100C90008AE28093A5028FE691E00E94580380913A
:100CA000A5020E94CD036091A50285E00E94210269
:100CB0006091A60281E10E9421026091A60282E178
:100CC0000E9421021092A20260E08091A3020E9481
:100CD000CB016FE780E00E94210261E08091A302D6
:100CE0000E94CB0160E387E00E9421020E941C0267
:100CF0008091A7029091A802DC01ED91FC910190F6
:100D0000F081E02D62EE09950E941702DD24D39454
:100D1000EDB6FEB680910402882391F10E9407038C
:100D20006093AA027093AB028093AC029093AD02E1
:100D30000091AE021091AF022091B0023091B10249
:100D40004B015C01801A910AA20AB30A89E791E07B
:100D50000E9458034AE0C501B4010E946A038CE175
:100D600091E00E945803B1E78B16B4E99B06A104F9
:100D7000B10430F087E891E00E94AB030E94B90310
:100D800089E991E00E94AB03BE016F5F7F4F87E06E
:100D90000E948A02898186FF35C086EA91E00E941E
:100DA000AB038091A60290E00196EDB7FEB7E81B79
:100DB000F90B0FB6F894FEBF0FBEEDBF0DB71EB70F
:100DC0000F5F1F4F0E941C028091A7029091A80202
:100DD000DC01ED91FC910190F081E02D61E6099537
:100DE0004091A602B801C8010E94A6000E94170205
:100DF00060E487E00E9421028EEA91E00E9458039D
:100E0000580111C0BE016F5F7F4F87E10E948A02C7
:100E1000898180FFC2CFA89564E670E080E090E011
:100E20000E94CD02B1CF8091A60290E09501201BD7
:100E3000310B2817390774F4F50161915F01E091D6
:100E40000502F09106020190F081E02D85E092E02C
:100E50000995E9CF8EE191E00E94AB038DEB91E023
:100E60000E94AB038091A602F801E80FF11D1082E9
:100E70008CEC91E00E945803C8010E94AB036AED1C
:100E800071E0C8010E94E107892B19F40E94B9039F
:100E90004CC06CE571E0C8010E94E107892BA9F400
:100EA0000E94B9030E9407036093AE027093AF02E1
:100EB0008093B0029093B102D092040261E086E088
:100EC0000E94CB018EED91E01BC064EE71E0C80181
:100ED0000E94E107892BB9F40E94B9030E9407031D
:100EE0006093AE027093AF028093B0029093B10210
:100EF000D092040261E087E00E94CB0188EE91E08D
:100F00000E94AB0312C060EF71E0C8010E94E107CC
:100F1000892B59F498E088E10FB6F894A89580934E
:100F200060000FBE90936000FFCFA8950FB6F894B5
:100F3000FEBE0FBEEDBE0E94C101EACEF999FECF02
:100F400092BD81BDF89A992780B50895262FF99909
:100F5000FECF1FBA92BD81BD20BD0FB6F894FA9A9C
:100F6000F99A0FBE01960895A1E21A2EAA1BBB1B87
:100F7000FD010DC0AA1FBB1FEE1FFF1FA217B30765
:100F8000E407F50720F0A21BB30BE40BF50B661F7B
:100F9000771F881F991F1A9469F76095709580953F
:100FA00090959B01AC01BD01CF010895EE0FFF1F8D
:100FB0000590F491E02D099481E090E0F8940C9470
:100FC000EA07FB01DC018D91019080190110D9F332
:080FD000990B0895F894FFCF7E
:100FD8000601000000005103140313030000000081
:100FE8005801D4002101FF0013019F010D0A00538D
:100FF800746F702E2E2E0073657475702E2E2E0051
:101008006F757220616464726573733A00627572F9
:101018006E657220616464726573733A006164641A
:10102800726573732073697A653A20003030310035
:101038007061796C6F61642073697A653A20006326
:1010480068616E6E656C3A2000656C6170736564EA
:1010580054696D653A200074696D65757020737404
:101068006F7070696E672E2E004C697374656E69B7
:101078006E672E2E2E00446174612E2E2E00446160
:10108800746120636F6E74656E743A20003D3D3D57
:101098003D3D3D3D3D3D3D3D3D3D3D005265747509
:1010A800726E20646174613A2000303030005570EF
:1010B8002E2E2E0030303200446F776E2E2E2E00EA
:0410C8003030330091
:107800000C94343C0C94513C0C94513C0C94513CE1
:107810000C94513C0C94513C0C94513C0C94513CB4
:107820000C94513C0C94513C0C94513C0C94513CA4
:107830000C94513C0C94513C0C94513C0C94513C94
:107840000C94513C0C94513C0C94513C0C94513C84
:107850000C94513C0C94513C0C94513C0C94513C74
:107860000C94513C0C94513C11241FBECFEFD8E036
:10787000DEBFCDBF11E0A0E0B1E0ECE9FFE702C060
:1078800005900D92A230B107D9F712E0A2E0B1E065
:1078900001C01D92AD30B107E1F70E942D3D0C945F
:1078A000CC3F0C94003C982F959595959595959582
:1078B000905D8F708A307CF0282F295A8091C0000B
:1078C00085FFFCCF9093C6008091C00085FFFCCF60
:1078D0002093C6000895282F205DF0CF982F809127
:1078E000C00085FFFCCF9093C6000895EF92FF92F1
:1078F0000F931F93EE24FF2487018091C00087FD22
:1079000017C00894E11CF11C011D111D81E4E8164B
:1079100082E4F8068FE0080780E0180770F3E09132
:107920000401F091050109958091C00087FFE9CF1E
:107930008091C6001F910F91FF90EF9008950E94D3
:10794000763C982F8091C00085FFFCCF9093C600B5
:1079500091362CF490330CF09053892F089597555D
:10796000892F08951F930E949F3C182F0E949F3CCF
:107970001295107F810F1F9108951F93182F882350
:1079800021F00E94763C1150E1F71F9108951F935A
:10799000182F0E94763C803249F0809103018F5F5E
:1079A000809303018530C1F01F9108958091C0003C
:1079B00085FFFCCF84E18093C6008091C00085FFE5
:1079C000FCCF1093C6008091C00085FFFCCF80E102
:1079D0008093C6001F910895E0910401F091050184
:1079E00009951F9108950E94763C803241F0809164
:1079F00003018F5F80930301853081F008958091AA
:107A0000C00085FFFCCF84E18093C6008091C00058
:107A100085FFFCCF80E18093C6000895E0910401CA
:107A2000F09105010995089540E951E08823A1F0FE
:107A30002D9A28EE33E0FA013197F1F721503040CA
:107A4000D1F72D9828EE33E0FA013197F1F7215064
:107A50003040D1F7815061F708953F924F925F9285
:107A60006F927F928F929F92AF92BF92CF92DF924E
:107A7000EF92FF920F931F93CF93DF93000080E16B
:107A80008093C4001092C50088E18093C10086E015
:107A90008093C2005098589A259A81E00E94143D24
:107AA00024E1F22E9EE1E92E85E9D82E0FE0C02ECA
:107AB00010E1B12EAA24A394B1E49B2EA6E58A2E50
:107AC000F2E57F2EE0E26E2E79E4572E63E5462E36
:107AD00050E5352E0E94763C8033B1F18133B9F107
:107AE000803409F46FC0813409F476C0823409F41B
:107AF00085C0853409F488C0803531F1823521F1A3
:107B0000813511F1853509F485C0863509F48DC0BC
:107B1000843609F496C0843709F403C1853709F423
:107B200072C1863709F466C0809103018F5F80932C
:107B30000301853079F6E0910401F0910501099582
:107B40000E94763C803351F60E94F33CC3CF0E94E2
:107B5000763C803249F78091C00085FFFCCFF092DF
:107B6000C6008091C00085FFFCCF9092C600809136
:107B7000C00085FFFCCF8092C6008091C00085FFC9
:107B8000FCCF7092C6008091C00085FFFCCF609250
:107B9000C6008091C00085FFFCCF5092C600809146
:107BA000C00085FFFCCF4092C6008091C00085FFD9
:107BB000FCCF3092C6008091C00085FFFCCFB09210
:107BC000C60088CF0E94763C863808F4BDCF0E945C
:107BD000763C0E94F33C7ECF0E94763C803809F4CC
:107BE0009CC0813809F40BC1823809F43CC1883942
:107BF00009F48FC080E00E94C73C6CCF84E10E94F2
:107C0000BD3C0E94F33C66CF85E00E94BD3C0E94D3
:107C1000F33C60CF0E94763C809306010E94763C44
:107C2000809307010E94F33C55CF0E94763C80333D
:107C300009F41DC183E00E94BD3C80E00E94C73C66
:107C400049CF0E94763C809309020E94763C809343
:107C5000080280910C028E7F80930C020E94763C79
:107C6000853409F415C18091080290910902892B8D
:107C700089F000E010E00E94763CF801E85FFE4FDA
:107C800080830F5F1F4F80910802909109020817AF
:107C9000190788F30E94763C803209F045CF809125
:107CA0000C0280FF01C16091060170910701660F0F
:107CB000771F7093070160930601A0910802B091AD
:107CC00009021097C9F0E8E0F1E09B01AD014E0F09
:107CD0005F1FF999FECF32BD21BD819180BDFA9A17
:107CE000F99A2F5F3F4FE417F50799F76A0F7B1F4B
:107CF00070930701609306018091C00085FFFCCF5F
:107D0000F092C6008091C00085FFFCCFB092C60003
:107D1000E1CE83E00E94C73CDDCE82E00E94C73CFA
:107D2000D9CE0E94763C809309020E94763C8093D3
:107D300008028091060190910701880F991F909386
:107D40000701809306010E94763C853409F4A6C0A1
:107D500080910C028E7F80930C020E94763C8032D0
:107D600009F0B8CE8091C00085FFFCCFF092C6002C
:107D7000609108027091090261157105B9F140E046
:107D800050E080910C02A82FA170B82FB27011C0E2
:107D9000BB2309F45CC0E0910601F0910701319624
:107DA000F0930701E09306014F5F5F4F46175707B7
:107DB000E8F4AA2369F3F999FECF209106013091E6
:107DC000070132BD21BDF89A90B58091C00085FFB2
:107DD000FCCF9093C6002F5F3F4F30930701209355
:107DE00006014F5F5F4F4617570718F38091C00099
:107DF00085FDE5CE8091C00085FFF8CFE0CE81E023
:107E00000E94C73C67CE0E94763C803209F08CCE3F
:107E10008091C00085FFFCCFF092C6008091C00029
:107E200085FFFCCFE092C6008091C00085FFFCCFAB
:107E3000D092C6008091C00085FFFCCFC092C600E2
:107E40008091C00085FFFCCFB092C60043CEE09188
:107E50000601F091070194918091C00085FFFCCF4D
:107E60009093C6009CCF80E10E94C73C33CE0E9415
:107E7000763C0E94763C182F0E94763C112309F430
:107E800083C0113009F484C08FE00E94C73C22CE29
:107E900080910C02816080930C02E5CE80910C02EF
:107EA000816080930C0259CF809107018823880F4D
:107EB000880B8A2180930B02809106019091070123
:107EC000880F991F90930701809306018091080203
:107ED00080FF09C080910802909109020196909359
:107EE000090280930802F894F999FECF1127E091D6
:107EF0000601F0910701C8E0D1E08091080290915D
:107F00000902103091F40091570001700130D9F34B
:107F100003E000935700E89500915700017001308D
:107F2000D9F301E100935700E89509901990009169
:107F3000570001700130D9F301E000935700E89534
:107F40001395103498F011270091570001700130FB
:107F5000D9F305E000935700E895009157000170B0
:107F60000130D9F301E100935700E895329602976A
:107F700009F0C7CF103011F00296E5CF112480919F
:107F8000C00085FFB9CEBCCE8EE10E94C73CA2CD19
:0C7F900085E90E94C73C9ECDF894FFCF0D
:027F9C00800063
:040000030000780081
:00000001FF
