:1079000000D01F92CDB7DEB7F89411248FED98E028
:107910009EBF8DBFCDB7DEB784B714BE83FF18C03E
:107920004091EC085091ED086091EE087091EF08DD
:107930004F3E5E4B6D4A7E4D59F41092EC0810920A
:10794000ED081092EE081092EF088091EB082AD310
:107950008093EB088FEE9EEBADEABEED8093EC08D2
:107960009093ED08A093EE08B093EF0811E0A0E02B
:10797000B1E0E8EBFFE702C005900D92A230B1073D
:10798000D9F711E0A2E0B1E001C01D92A834B1071F
:10799000E1F78AB183608AB98BB18C7F8BB982E0C1
:1079A0008093C00088E18093C10086E08093C2008C
:1079B00080E18093C400579A5F9A80E49DE04FD1A4
:1079C0005F9880E49DE04BD15F9A80E49DE047D1D1
:1079D0005F9880E49DE043D15F9A80E49DE03FD1D1
:1079E0005F9884B1886284B92498229A1CBC80E58F
:1079F0008CBD11E01DBD8DB58EB5219A229A579A86
:107A000080E991E02CD1299836D180E197E227D105
:107A10006FE784E047D131D184E017D180E015D100
:107A2000082F29D10F3749F566E286E03BD163E0A4
:107A30008CE138D164E08DE135D160E787E032D167
:107A40006AE285E02FD161E083E02CD163E081E040
:107A500029D11093460180E090E0F0D0898381E045
:107A600090E0ECD08A8382E090E0E8D08B83BE0186
:107A70006F5F7F4F8BE003D122D188E1809360005C
:107A80008EE08093600000E010E028E1A22E38E054
:107A9000932E8824839445E0742E51E1652E63E093
:107AA000B62EADD1813491F4AAD1F82E68D282E8F5
:107AB000F81202C080E004C091E8F91205C085E028
:107AC0000FD180E10DD1EDCF83E0FACF823419F4EC
:107AD00084E15BD2F6CF853411F485E0FACF8535A9
:107AE00049F48DD1082F10E08AD1182B000F111FF7
:107AF00046D2E7CF863519F484E047D2DBCF84360F
:107B000009F065C07CD17BD1E82E79D1582EE6E40E
:107B10008E1307C00115F0E71F0718F4F801B7BE70
:107B2000E895FE2C80E8C82EDD24D39468D1F601B8
:107B300081936F01FA94F110F9CFEA94F12CFFE7E9
:107B4000EF1AFEEFFF0A26E4521229C0011580E762
:107B5000180718F0F801B7BEE89511D207B600FC77
:107B6000FDCFF801A0E8B1E08C919D012E5F3F4F61
:107B700011964C9190E0942B0C0187BEE89511244E
:107B80003296D901A11522E0B20771F7F80177BE4C
:107B9000E89507B600FCFDCF67BEE89592CFF5E407
:107BA0005F128FCFECD1C801E0E8F1E0EE1609F4E6
:107BB00088CFA89541919C012F5F3F4FF999FECF47
:107BC00092BD81BD40BDFA9AF99AC901EFCF8437C1
:107BD00021F515D114D1D82E12D1F82ED0D126E40A
:107BE000F21208C0F80185918F017AD0DA94D11091
:107BF000F9CF67CF85E4F81264CFCD2CC801C1104E
:107C000003C00D0D111D5DCF7C01EFEFEE1AFE0AD2
:107C100015D066D0CA94C701F2CF853739F4AFD1F9
:107C20008EE15ED085E95CD08FE04ACF813509F0E6
:107C30005FCFA0926000909260005ACFF999FECF7A
:107C400092BD81BDF89A80B508958EBD8FEF8150A9
:107C50000DB407FC02C08111FACF8EB508950197CB
:107C600008F408950000000000000000000000007B
:107C70000000A895F4CF2A9A08952A9808951F9392
:107C8000CF93DF93182FEB01F8DF812F8062DDDFC8
:107C90008881DBDF8981D9DF8A81D7DFDF91CF91CE
:107CA0001F91E9CFCF93DF93D82FC62FE6DF8D2F1B
:107CB0008062CBDF8C2FC9DFDF91CF91DCCF809149
:107CC000450181110CC06FE7EDDF62E082E0EADF81
:107CD00084E190E0C4DF299A81E080934501089512
:107CE000EF92FF920F931F93CF93DF9390914701F1
:107CF000992309F47DC0E091440191E09E0F909397
:107D00004401F0E0EC5DFE4F8083803121F08091F2
:107D10000101981357C0D0E8FF24F394D15009F41F
:107D200049C080E49FE19BDFC091440180914501FF
:107D3000882331F080E991E092DF2998F0924501A3
:107D40006EE780E0AFDF61E082E0ACDF96DF81EEDE
:107D50007CDF91DF92DF80EA78DF04E211E0C1117D
:107D600038C089DF84E190E07ADF299A86DF8FEFDF
:107D70006CDFC82F80DF80E991E071DF299800E196
:107D800017E2FC2FF072EF2EC5FF02C0C0FF05C046
:107D9000C4FD03C00150110911F560E387E082DFE3
:107DA00080914501882319F01092450188DFEE206B
:107DB00009F4B4CF81E080934401809124018F5F66
:107DC00080932401DF91CF911F910F91FF90EF904D
:107DD0000895F80181918F0138DFC150C0CF84E14F
:107DE00090E03DDF4ADF8FEF30DFC82F44DFC9CF9F
:107DF0009091C00095FFFCCF8093C600E3CFFF9227
:107E00000F931F93CF93DF93579A5F9A80E492E486
:107E100026DF5F9880E492E422DF5F9A80E492E4B8
:107E20001EDF5F9880E492E41ADF5F9A80E492E4B8
:107E300016DF5F98D1E085E0F82E809146019091A1
:107E4000C00097FF0DC08091C00084FD01C0A895BF
:107E50008091C600DF91CF911F910F91FF900895FF
:107E6000882369F3809123018823D1F0A8955F9A34
:107E700080E49DE0F4DE5F98809123018823D1F0B7
:107E8000E091020181E08E0F80930201F0E0ED5F4E
:107E9000FE4F808190912301915090932301DACF7E
:107EA000ECDE87E1D2DE80E0D0DEC82FE4DEC0FF6A
:107EB000DDCFC3CF60E487E0F5DEDFDE80E6C5DE40
:107EC00080E0C3DEC82FD7DEC0932301D6DE81E673
:107ED000BCDE03E011E0C1112EC0CDDED093020163
:107EE00080914701811119C080912301843050F1A4
:107EF00063E071E080E1C3DE63E071E08AE0BFDE51
:107F00008091060180930101809123018450809328
:107F10002301F0920201D09347018091230188232D
:107F200009F48BCF909103012091000192130DC0B1
:107F30001092230182CF80E088DEF80181938F01C7
:107F4000C150C9CF10922301E8CF90930001815016
:107F50008093230195CF80914501882321F080E90A
:107F600091E07DDE29986CE780E09CDE109245016F
:107F700088E18093600088E080936000FFCF3FDF5E
:107F8000803209F0E8DF84E1ABCECF93C82F37DF32
:107F9000C150E9F7CF91F3CFE0E6F0E098E19083AC
:107FA00080830895E0E6F0E098E1908398E2908382
:087FB000282EEE27FF2709949B
:027FB800FF20A8
:027FFE0000057C
:040000030000790080
:00000001FF
