:1079000000D00F92CDB7DEB7F89411248FED98E038
:107910009EBF8DBFCDB7DEB784B714BE83FF18C03E
:107920004091EC085091ED086091EE087091EF08DD
:107930004F3E5E4B6D4A7E4D59F41092EC0810920A
:10794000ED081092EE081092EF088091EB08F0D24B
:107950008093EB088FEE9EEBADEABEED8093EC08D2
:107960009093ED08A093EE08B093EF0811E0A0E02B
:10797000B1E0E4E4FFE702C005900D92A230B10748
:10798000D9F711E0A2E0B1E001C01D92A834B1071F
:10799000E1F78AB183608AB98BB18C7F8BB982E0C1
:1079A0008093C00088E18093C10086E08093C2008C
:1079B00080E18093C40084B1886284B92498229ABB
:1079C0001CBC80E58CBD11E01DBD8DB58EB5219A26
:1079D000229A579A80E991E024D129982ED180E10A
:1079E00097E21FD16FE784E03FD129D184E00FD126
:1079F00080E00DD1082F21D10F3711F566E286E026
:107A000033D163E08CE130D164E08DE12DD160E7CA
:107A100087E02AD16AE285E027D161E083E024D1C2
:107A200063E081E021D11093460180E389838A835A
:107A300086E38B83BE016F5F7F4F8BE002D121D144
:107A400088E1809360008EE08093600010E000E0A9
:107A500048E1A42E58E0952E8824839465E0762E84
:107A600071E1672EE3E0BE2EAED1813481F4ABD15B
:107A7000F82E4BD282E8F81202C080E004C091E8F0
:107A800085E0F91283E00ED180E10CD1EDCF823494
:107A900019F484E140D2F8CF853411F485E0FACFAF
:107AA000853549F490D1082F10E08DD1182B000FA7
:107AB000111F2BD2E9CF863519F484E02CD2DDCF0B
:107AC000843609F067C07FD17ED1E82E7CD1582E54
:107AD000E6E48E1307C00115F0E71F0718F4F8015C
:107AE000B7BEE89580E891E020E8F22EFE0C6C012C
:107AF0006AD1F6018193CF01FE12F9CFEA94F12CFD
:107B0000F6E45F1228C0011520E7120718F0F8010B
:107B1000B7BEE895FAD107B600FCFDCFF801A0E8A2
:107B2000B1E08C919D012E5F3F4F11969C91119772
:107B30000C0187BEE89511243296AE3FB14049F45E
:107B4000F80177BEE89507B600FCFDCF67BEE89563
:107B50009BCFD901E6CFF5E45F1296CFD6D12FEFB8
:107B6000E21AF20AFF2490E080E0FC01E058FE4FA8
:107B70009801280F391FE816F90609F485CFA89552
:107B80004081F999FECF32BD21BD40BDFA9AF99AE4
:107B90000196EBCF843751F516D115D1D82E13D1DC
:107BA000F82EB3D186E4F81208C0F80185918F0150
:107BB00079D0DA94D110F9CF67CF95E4F91264CF78
:107BC000CD2CC8010CC07C01EFEFEE1AFE0AF9992A
:107BD000FECF92BD81BDF89A80B564D0C701CA942A
:107BE000FFEFCF12F0CF0D0D111D4ECF853739F4B9
:107BF0008CD18EE157D085E955D08FE044CF8135C7
:107C000009F057CFA09260009092600052CF8EBDD5
:107C10008FEF81500DB407FC02C08111FACF8EB5F1
:107C20000895019708F40895000000000000000086
:107C3000000000000000A895F4CF2A9A08952A9821
:107C400008951F93CF93DF93182FEB01F8DF812F57
:107C50008062DDDF8881DBDF8981D9DF8A81D7DF40
:107C6000DF91CF911F91E9CFCF93DF93D82FC62F0C
:107C7000E6DF8D2F8062CBDF8C2FC9DFDF91CF91C4
:107C8000DCCF8091450181110CC06FE7EDDF62E030
:107C900082E0EADF84E190E0C4DF299A81E080930A
:107CA00045010895DF92EF92FF920F931F93CF93B8
:107CB000DF9390914701992309F47EC0E09144013C
:107CC00091E09E0F90934401F0E0EC5DFE4F8083C5
:107CD000803121F08091010198135AC010E8DD2411
:107CE000D394115009F44CC080E49FE19ADF0091D5
:107CF000440180914501882331F080E991E091DFD2
:107D00002998D09245016EE780E0AEDF61E082E025
:107D1000ABDF95DF81EE7BDF90DF91DF80EA77DFFD
:107D2000C4E2D1E0015008F03BC087DF84E190E07D
:107D300078DF299A84DF8FEF6ADFC82F7EDF80E942
:107D400091E06FDF299880E1E82E87E2F82EDC2FA2
:107D5000D072C5FF02C0C0FF06C0C4FD04C081E0F0
:107D6000E81AF10801F560E387E07EDF80914501C4
:107D7000882319F01092450184DFDD2309F4B1CF87
:107D800081E080934401809124018F5F80932401DE
:107D9000DF91CF911F910F91FF90EF90DF900895A9
:107DA000899135DFBFCF84E190E03BDF48DF8FEF83
:107DB0002EDFC82F42DFCBCF9091C00095FFFCCFC4
:107DC0008093C600E5CFFF920F931F93CF93DF936D
:107DD00001E085E0F82E809146019091C00097FF68
:107DE0000DC08091C00084FD01C0A8958091C6009F
:107DF000DF91CF911F910F91FF900895882369F330
:107E0000809123018823A9F0A895809123018823DC
:107E1000D1F0E091020181E08E0F80930201F0E049
:107E2000ED5FFE4F8081909123019150909323014B
:107E3000DFCF05DF87E1EBDE80E0E9DEC82FFDDE86
:107E4000C0FFE2CFC8CF60E487E00EDFF8DE80E657
:107E5000DEDE80E0DCDE182FF0DE10932301EFDEA3
:107E600081E6D5DEC3E0D1E0115070F5E6DE009387
:107E7000020180914701811119C080912301843052
:107E800038F163E071E080E1DCDE63E071E08AE01C
:107E9000D8DE8091060180930101809123018450F6
:107EA00080932301F0920201009347018091230106
:107EB000882309F490CF909103012091000192133F
:107EC0000AC01092230187CF80E0A1DE8993CCCF36
:107ED00010922301EBCF90930001815080932301F6
:107EE00098CF80914501882321F080E991E099DEC7
:107EF00029986CE780E0B8DE1092450188E1809314
:107F0000600088E080936000FFCF5DDF803209F081
:107F1000E8DF84E1C7CECF93C82F55DFC150E9F722
:107F2000CF91F3CFE0E6F0E098E19083808308956D
:107F3000E0E6F0E098E1908398E29083282EEE2727
:047F4000FF2709947A
:027F4400FF201C
:027FFE0000057C
:040000030000790080
:00000001FF
