:1079000000D00F92CDB7DEB7F894112484B714BE1F
:10791000982F9D7009F000D311E0A0E0B1E0EAE2F9
:10792000FFE702C005900D92A230B107D9F711E030
:10793000A2E0B1E001C01D92A834B107E1F785E0F3
:10794000809381008AB183608AB98BB18C7F8BB9B7
:1079500082E08093C00088E18093C10086E080933C
:10796000C20080E18093C40084B1886284B9249805
:10797000229A1CBC80E58CBD11E01DBD8DB58EB575
:10798000219A229A579A80E991E03FD1299849D1CA
:1079900080E197E23AD16FE784E05AD144D184E0A4
:1079A0002AD180E028D1082F3CD10F3749F566E273
:1079B00086E04ED163E08CE14BD164E08DE148D1AB
:1079C00060E787E045D16AE285E042D161E083E08B
:1079D0003FD163E081E03CD11093460190E080E02C
:1079E00003D1898381E090E0FFD08A8382E090E038
:1079F000FBD08B83BE016F5F7F4F8BE016D135D1FB
:107A000088E1809360008EE080936000259A86E094
:107A100020E33CEF91E0309385002093840096BBF7
:107A2000B09BFECF1D9AA8958150A9F710E000E009
:107A300048E1A42E58E0952E8824839465E0762EA4
:107A400071E1672EE3E0BE2EB2D1813491F4AFD163
:107A5000F82E4FD222E8F21202C080E004C081E882
:107A6000F81205C085E012D180E110D1EDCF83E09E
:107A7000FACF823419F484E142D2F6CF853411F47E
:107A800085E0FACF853549F492D1082F10E08FD1E7
:107A9000182B000F111F2DD2E7CF863519F484E083
:107AA0002ED2DBCF843609F067C081D180D1E82E99
:107AB0007ED1582EE6E48E1307C00115F0E71F07AC
:107AC00018F4F801B7BEE89580E891E020E8F22EBE
:107AD000FE0C6C016CD1F6018193CF01FE12F9CF3F
:107AE000EA94F12CF6E45F1228C0011520E7120792
:107AF00018F0F801B7BEE895FCD107B600FCFDCF41
:107B0000F801A0E8B1E08C919D012E5F3F4F1196E6
:107B10009C9111970C0187BEE89511243296AE3FD7
:107B2000B14049F4F80177BEE89507B600FCFDCFF7
:107B300067BEE89599CFD901E6CFF5E45F1294CFFF
:107B4000D8D12FEFE21AF20AFF2490E080E0FC0186
:107B5000E058FE4F9801280F391F8E159F0509F434
:107B600083CFA8954081F999FECF32BD21BD40BD9C
:107B7000FA9AF99A0196EBCF843729F518D117D1E3
:107B8000D82E15D1F82EB5D186E4F81208C0F80128
:107B900085918F017BD0DA94D110F9CF65CFE5E4E0
:107BA000FE1262CFCD2CC80107C07C01FFEFEF1A97
:107BB000FF0A1AD06BD0C701CA942FEFC212F5CFBB
:107BC0000D0D111D51CF853739F493D18EE15ED063
:107BD00085E95CD08FE047CF813509F05CCFA0927A
:107BE00060009092600057CFF999FECF92BD81BDA1
:107BF000F89A80B508958EBD8FEF81500DB407FCC3
:107C000002C08111FACF8EB50895019708F4089546
:107C10000000000000000000000000000000A89527
:107C2000F4CF2A9A08952A9808951F93CF93DF934B
:107C3000182FEB01F8DF812F8062DDDF8881DBDF29
:107C40008981D9DF8A81D7DFDF91CF911F91E9CF79
:107C5000CF93DF93D82FC62FE6DF8D2F8062CBDF47
:107C60008C2FC9DFDF91CF91DCCF8091450181114D
:107C70000CC06FE7EDDF62E082E0EADF84E190E0D4
:107C8000C4DF299A81E0809345010895DF92EF9245
:107C9000FF920F931F93CF93DF9390914701992306
:107CA00009F47EC0E091440191E09E0F909344015D
:107CB000F0E0EC5DFE4F8083803121F08091010186
:107CC00098135AC010E8DD24D394115009F44CC025
:107CD00080E49FE19ADF009144018091450188236F
:107CE00031F080E991E091DF2998D09245016EE76B
:107CF00080E0AEDF61E082E0ABDF95DF81EE7BDF2D
:107D000090DF91DF80EA77DFC4E2D1E0015008F034
:107D10003BC087DF84E190E078DF299A84DF8FEF32
:107D20006ADFC82F7EDF80E991E06FDF299880E16C
:107D3000E82E87E2F82EDC2FD072C5FF02C0C0FF0C
:107D400006C0C4FD04C081E0E81AF10801F560E353
:107D500087E07EDF80914501882319F0109245016C
:107D600084DFDD2309F4B1CF81E080934401809169
:107D700024018F5F80932401DF91CF911F910F9198
:107D8000FF90EF90DF900895899135DFBFCF84E1B8
:107D900090E03BDF48DF8FEF2EDFC82F42DFCBCFF5
:107DA0009091C00095FFFCCF8093C600E5CFFF9275
:107DB0000F931F93CF93DF9301E085E0F82E80911E
:107DC00046019091C00097FF0DC08091C00084FDD6
:107DD00001C0A8958091C600DF91CF911F910F91AE
:107DE000FF900895882369F3809123018823A9F0E7
:107DF000A895809123018823D1F0E091020181E0D0
:107E00008E0F80930201F0E0ED5FFE4F8081909134
:107E10002301915090932301DFCF05DF87E1EBDE53
:107E200080E0E9DEC82FFDDEC0FFE2CFC8CF60E40E
:107E300087E00EDFF8DE80E6DEDE80E0DCDE182F95
:107E4000F0DE10932301EFDE81E6D5DEC3E0D1E062
:107E5000115070F5E6DE0093020180914701811117
:107E600019C080912301843038F163E071E080E132
:107E7000DCDE63E071E08AE0D8DE80910601809369
:107E8000010180912301845080932301F09202012B
:107E90000093470180912301882309F490CF9091AA
:107EA00003012091000192130AC01092230187CF91
:107EB00080E0A1DE8993CCCF10922301EBCF909389
:107EC000000181508093230198CF80914501882340
:107ED00021F080E991E099DE29986CE780E0B8DE36
:107EE0001092450188E18093600088E080936000F3
:107EF000FFCF5DDF803209F0E8DF84E1C7CECF93AA
:107F0000C82F55DFC150E9F7CF91F3CFE0E6F0E09D
:107F100098E1908380830895E0E6F0E098E1908313
:0A7F20001082282EEE27FF27099497
:027F2A00FF2036
:027FFE0000057C
:040000030000790080
:00000001FF
