:1079000000D00F92CDB7DEB7F89411248FED98E038
:107910009EBF8DBFCDB7DEB784B714BE83FF18C03E
:107920004091EC085091ED086091EE087091EF08DD
:107930004F3E5E4B6D4A7E4D59F41092EC0810920A
:10794000ED081092EE081092EF088091EB0843D3F7
:107950008093EB088FEE9EEBADEABEED8093EC08D2
:107960009093ED08A093EE08B093EF0811E0A0E02B
:10797000B1E0EAEEFFE702C005900D92A230B10738
:10798000D9F711E0A2E0B1E001C01D92A834B1071F
:10799000E1F78AB183608AB98BB18C7F8BB982E0C1
:1079A0008093C00088E18093C10086E08093C2008C
:1079B00080E18093C40084B1886284B92498229ABB
:1079C0001CBC80E58CBD11E01DBD8DB58EB5219A26
:1079D000229A579A80E991E05CD1299866D180E19A
:1079E00097E257D16FE784E077D161D184E047D146
:1079F00080E045D1082F59D10F3709F057C066E212
:107A000086E06AD163E08CE167D164E08DE164D106
:107A100060E787E061D16AE285E05ED161E083E002
:107A20005BD163E081E058D110934601579A5F9A89
:107A300080E49DE02ED15F9880E49DE02AD15F9A9A
:107A400080E49DE026D15F9880E49DE022D15F9A9A
:107A500080E49DE01ED15F9880E49DE01AD15F9A9A
:107A600080E49DE016D15F9880E49DE012D15F9A9A
:107A700080E49DE00ED15F9880E49DE00AD15F9A9A
:107A800080E49DE006D15F9890E080E0F1D08983AA
:107A900081E090E0EDD08A8382E090E0E9D08B83B2
:107AA000BE016F5F7F4F8BE004D123D188E18093CB
:107AB00060008EE08093600010E000E048E1A42EBA
:107AC00058E0952E8824839465E0762E71E1672E28
:107AD000E3E0BE2EB0D1813481F4ADD1F82E68D26E
:107AE00082E8F81202C080E004C091E885E0F91253
:107AF00083E010D180E10ED1EDCF823419F484E11E
:107B00005DD2F8CF853411F485E0FACF853549F49C
:107B100092D1082F10E08FD1182B000F111F48D2DF
:107B2000E9CF863519F484E049D2DDCF843609F0F7
:107B300067C081D180D1E82E7ED1582EE6E48E1325
:107B400007C00115F0E71F0718F4F801B7BEE89564
:107B500080E891E020E8F22EFE0C6C016CD1F60179
:107B60008193CF01FE12F9CFEA94F12CF6E45F1273
:107B700028C0011520E7120718F0F801B7BEE895F4
:107B800017D207B600FCFDCFF801A0E8B1E08C9158
:107B90009D012E5F3F4F11969C9111970C0187BE5E
:107BA000E89511243296AE3FB14049F4F80177BE12
:107BB000E89507B600FCFDCF67BEE8959BCFD901DD
:107BC000E6CFF5E45F1296CFF3D12FEFE21AF20A77
:107BD000FF2490E080E0FC01E058FE4F9801280F60
:107BE000391FE816F90609F485CFA8954081F9995F
:107BF000FECF32BD21BD40BDFA9AF99A0196EBCF76
:107C0000843729F518D117D1D82E15D1F82ED0D117
:107C100086E4F81208C0F80185918F017BD0DA94D0
:107C2000D110F9CF67CF95E4F91264CFCD2CC801FC
:107C300007C07C01EFEFEE1AFE0A1AD06BD0C70125
:107C4000CA94FFEFCF12F5CF0D0D111D53CF85371D
:107C500039F4AED18EE15ED085E95CD08FE049CFBA
:107C6000813509F05CCFA09260009092600057CF00
:107C7000F999FECF92BD81BDF89A80B508958EBD69
:107C80008FEF81500DB407FC02C08111FACF8EB581
:107C90000895019708F40895000000000000000016
:107CA000000000000000A895F4CF2A9A08952A98B1
:107CB00008951F93CF93DF93182FEB01F8DF812FE7
:107CC0008062DDDF8881DBDF8981D9DF8A81D7DFD0
:107CD000DF91CF911F91E9CFCF93DF93D82FC62F9C
:107CE000E6DF8D2F8062CBDF8C2FC9DFDF91CF9154
:107CF000DCCF8091450181110CC06FE7EDDF62E0C0
:107D000082E0EADF84E190E0C4DF299A81E0809399
:107D100045010895DF92EF92FF920F931F93CF9347
:107D2000DF9390914701992309F47EC0E0914401CB
:107D300091E09E0F90934401F0E0EC5DFE4F808354
:107D4000803121F08091010198135AC010E8DD24A0
:107D5000D394115009F44CC080E49FE19ADF009164
:107D6000440180914501882331F080E991E091DF61
:107D70002998D09245016EE780E0AEDF61E082E0B5
:107D8000ABDF95DF81EE7BDF90DF91DF80EA77DF8D
:107D9000C4E2D1E0015008F03BC087DF84E190E00D
:107DA00078DF299A84DF8FEF6ADFC82F7EDF80E9D2
:107DB00091E06FDF299880E1E82E87E2F82EDC2F32
:107DC000D072C5FF02C0C0FF06C0C4FD04C081E080
:107DD000E81AF10801F560E387E07EDF8091450154
:107DE000882319F01092450184DFDD2309F4B1CF17
:107DF00081E080934401809124018F5F809324016E
:107E0000DF91CF911F910F91FF90EF90DF90089538
:107E1000899135DFBFCF84E190E03BDF48DF8FEF12
:107E20002EDFC82F42DFCBCF9091C00095FFFCCF53
:107E30008093C600E5CFFF920F931F93CF93DF93FC
:107E4000579A5F9A80E492E424DF5F9880E492E49A
:107E500020DF5F9A80E492E41CDF5F9880E492E484
:107E600018DF5F9A80E492E414DF5F9801E085E018
:107E7000F82E809146019091C00097FF0DC080912F
:107E8000C00084FD01C0A8958091C600DF91CF910C
:107E90001F910F91FF900895882369F3809123012A
:107EA0008823D1F0A8955F9A80E49DE0F2DE5F9888
:107EB000809123018823D1F0E091020181E08E0FAF
:107EC00080930201F0E0ED5FFE4F808190912301ED
:107ED000915090932301DACFEADE87E1D0DE80E093
:107EE000CEDEC82FE2DEC0FFDDCFC3CF60E487E087
:107EF000F3DEDDDE80E6C3DE80E0C1DE182FD5DEF6
:107F000010932301D4DE81E6BADEC3E0D1E0115044
:107F100070F5CBDE0093020180914701811119C0F9
:107F200080912301843038F163E071E080E1C1DEAB
:107F300063E071E08AE0BDDE80910601809301017B
:107F400080912301845080932301F09202010093D9
:107F5000470180912301882309F48BCF909103017D
:107F60002091000192130AC01092230182CF80E079
:107F700086DE8993CCCF10922301EBCF9093000142
:107F800081508093230198CF80914501882321F06F
:107F900080E991E07EDE29986CE780E09DDE10921A
:107FA000450188E18093600088E080936000FFCF06
:107FB00042DF803209F0E8DF84E1ACCECF93C82FF6
:107FC0003ADFC150E9F7CF91F3CFE0E6F0E098E176
:107FD000908380830895E0E6F0E098E1908398E252
:0A7FE0009083282EEE27FF27099456
:027FEA00FF2076
:027FFE0000057C
:040000030000790080
:00000001FF
