:100000000C9435000C945D000C945D000C945D0024
:100010000C945D000C945D000C945D000C945D00EC
:100020000C945D000C945D000C945D000C945D00DC
:100030000C945D000C945D000C945D000C945D00CC
:100040000C9451020C945D000C941F020C94F90165
:100050000C945D000C945D000C945D000C945D00AC
:100060000C945D000C945D00DB0311241FBECFEFE8
:10007000D8E0DEBFCDBF11E0A0E0B1E0EEE6F8E0F1
:1000800002C005900D92A034B107D9F721E0A0E499
:10009000B1E001C01D92A83EB207E1F710E0C5E350
:1000A000D0E004C02197FE010E942A04C433D10786
:1000B000C9F70E949B020C9435040C940000CF9267
:1000C000DF92EF92FF920F931F93CF93DF936C0118
:1000D0007A018B01C0E0D0E0CE15DF0589F0D801B0
:1000E0006D918D01D601ED91FC910190F081E02D93
:1000F000C6010995892B11F47E0102C02196ECCF2F
:10010000C701DF91CF911F910F91FF90EF90DF908A
:10011000CF900895FC01918D828D981761F0828DAA
:10012000DF01A80FB11D5D968C91928D9F5F9F732B
:10013000928F90E008958FEF9FEF0895FC01918DCD
:10014000828D981731F0828DE80FF11D858D90E03A
:1001500008958FEF9FEF0895FC01918D228D892FD7
:1001600090E0805C9F4F821B91098F7399270895BF
:100170008BE491E00E94AC0021E0892B09F420E09F
:10018000822F0895FC01848DDF01A80FB11DA35AB1
:10019000BF4F2C91848D90E001968F739927848FA7
:1001A000A689B7892C93A089B1898C9180648C939E
:1001B000938D848D981306C00288F389E02D808189
:1001C0008F7D80830895EF92FF920F931F93CF93BB
:1001D000DF93EC0181E0888F9B8D8C8D981305C097
:1001E000E889F989808185FD24C0F62E0B8D10E009
:1001F0000F5F1F4F0F731127E02E8C8DE8120CC07C
:100200000FB607FCFACFE889F989808185FFF5CF21
:10021000CE010E94C200F1CF8B8DFE01E80FF11DCF
:10022000E35AFF4FF0820B8FEA89FB89808180625D
:1002300007C0EE89FF896083E889F989808180643D
:10024000808381E090E0DF91CF911F910F91FF902B
:10025000EF900895CF93DF93EC01888D8823C9F048
:10026000EA89FB89808185FD05C0A889B9898C91BF
:1002700086FD0FC00FB607FCF5CF808185FFF2CF5A
:10028000A889B9898C9185FFEDCFCE010E94C2006B
:10029000E7CFDF91CF91089580E090E0892B29F09E
:1002A0000E94B80081110C94000008953FB7F894A3
:1002B0008091450190914601A0914701B09148017C
:1002C00026B5A89B05C02F3F19F00196A11DB11DB1
:1002D0003FBFBA2FA92F982F8827820F911DA11DEC
:1002E000B11DBC01CD0142E0660F771F881F991F29
:1002F0004A95D1F70895009769F0FC01019000201C
:10030000E9F73197AF01481B590BBC018BE491E031
:100310000C945F0080E090E008958F929F92AF92DE
:10032000BF920F931F93CF93DF93CDB7DEB7A19703
:100330000FB6F894DEBF0FBECDBF19A2423008F44D
:100340004AE08E010F5D1F4F842E912CA12CB12C01
:10035000A50194010E940804E62FB901CA010150C9
:100360001109EA3014F4E05D01C0E95CD801EC93B6
:10037000232B242B252B61F7C8010E947B01A1961A
:100380000FB6F894DEBF0FBECDBFDF91CF911F91A6
:100390000F91BF90AF909F908F900895CF92DF9272
:1003A000EF92FF92CF93DF936B017C01E0914B01C1
:1003B000F0914C010190F081E02D6DE28BE491E031
:1003C0000995EC0166277727CB016C197D098E0909
:1003D0009F094AE00E948D018C0F9D1FDF91CF91F4
:1003E000FF90EF90DF90CF9008950C947B010E94D6
:1003F00030041F920F920FB60F9211242F933F9348
:100400004F935F936F937F938F939F93AF93BF931C
:10041000EF93FF938BE491E00E94C200FF91EF9174
:10042000BF91AF919F918F917F916F915F914F910C
:100430003F912F910F900FBE0F901F9018951F9214
:100440000F920FB60F9211242F938F939F93EF93D8
:10045000FF93E0915B01F0915C018081E09161018B
:10046000F091620182FD12C09081809164018F5FE2
:100470008F7320916501821751F0E0916401F0E0E3
:10048000E55BFE4F958F8093640101C08081FF91F1
:10049000EF919F918F912F910F900FBE0F901F9012
:1004A00018951F920F920FB60F9211242F933F931E
:1004B0008F939F93AF93BF9380914101909142019D
:1004C000A0914301B09144013091400123E0230FFA
:1004D0002D3720F40196A11DB11D05C026E8230F7C
:1004E0000296A11DB11D209340018093410190937C
:1004F0004201A0934301B093440180914501909142
:100500004601A0914701B09148010196A11DB11D7E
:100510008093450190934601A0934701B093480111
:10052000BF91AF919F918F913F912F910F900FBEEF
:100530000F901F901895789484B5826084BD84B51F
:10054000816084BD85B5826085BD85B5816085BDCE
:1005500080916E00816080936E0010928100809186
:10056000810082608093810080918100816080930E
:100570008100809180008160809380008091B10033
:1005800084608093B1008091B00081608093B0005E
:1005900080917A00846080937A0080917A008260F2
:1005A00080937A0080917A00816080937A008091B4
:1005B0007A00806880937A001092C100E0915B011C
:1005C000F0915C0182E08083E0915701F091580145
:1005D0001082E0915901F0915A0180E180831092DC
:1005E0006301E0915F01F091600186E08083E0911A
:1005F0005D01F0915E01808180618083E0915D0109
:10060000F0915E01808188608083E0915D01F091CE
:100610005E01808180688083E0915D01F0915E01E0
:1006200080818F7D808380E191E00E94F5018AE1E5
:1006300091E00E94F5018CE191E00E94F5018AE1D0
:1006400091E00E94F50180E291E00E94F5018AE1CB
:1006500091E00E94F50184E291E00E94F5018AE1B7
:1006600091E00E94F50188E291E00E94F5018AE1A3
:1006700091E00E94F50110924A0110924901809187
:10068000490190914A01803491050CF089C08CE2B7
:1006900091E00E94F5016091490170914A01072E95
:1006A000000C880B990B97FF03C00E94CE0103C07A
:1006B0004AE00E948D018AE191E00E94F50160917B
:1006C000490170914A01072E000C880B990B97FF86
:1006D00003C00E94CE0103C04AE00E948D018AE15E
:1006E00091E00E94F5016091490170914A01072E45
:1006F000000C880B990B40E10E948D018AE191E08A
:100700000E94F5016091490170914A01072E000C89
:10071000880B990B48E00E948D018AE191E00E94CC
:10072000F5016091490170914A01072E000C880B78
:10073000990B42E00E948D018CE391E00E947B01C5
:100740000E9456014B015C0188ECC82ED12CE12C93
:10075000F12C0E945601DC01CB0188199909AA09E4
:10076000BB09883E9340A105B10558F021E0C21AAB
:10077000D108E108F10888EE880E83E0981EA11CDC
:10078000B11CC114D104E104F10419F780914901AD
:1007900090914A01019690934A01809349016FCF4D
:1007A0008BE191E00E947B018CE391E00E947B0150
:1007B0000E944C0138CFEBE4F1E01382128288EE04
:1007C00093E0A0E0B0E084839583A683B78384E0C0
:1007D00091E09183808385EC90E09587848784EC19
:1007E00090E09787868780EC90E0918B808B81ECFE
:1007F00090E0938B828B82EC90E0958B848B86ECDF
:1008000090E0978B868B118E128E138E148E089526
:10081000A1E21A2EAA1BBB1BFD010DC0AA1FBB1F04
:10082000EE1FFF1FA217B307E407F50720F0A21B76
:10083000B30BE40BF50B661F771F881F991F1A94E3
:1008400069F760957095809590959B01AC01BD010D
:10085000CF010895EE0FFF1F0590F491E02D09944C
:0E08600081E090E0F8940C943504F894FFCFFA
:10086E0000000000E3005F00AC008A009E002A0139
:10087E004E4F20464F524D4154000900444543000F
:10088E00484558004F43540042494E002D2D2D2D02
:10089E002D2D2D2D2D2D746F646179000D0A000004
:00000001FF
