:1079000000D01F92CDB7DEB7F89411248FED98E028
:107910009EBF8DBFCDB7DEB784B714BE83FF18C03E
:107920004091EC085091ED086091EE087091EF08DD
:107930004F3E5E4B6D4A7E4D59F41092EC0810920A
:10794000ED081092EE081092EF088091EB08F8D243
:107950008093EB088FEE9EEBADEABEED8093EC08D2
:107960009093ED08A093EE08B093EF0811E0A0E02B
:10797000B1E0E4E5FFE702C005900D92A230B10747
:10798000D9F711E0A2E0B1E001C01D92A834B1071F
:10799000E1F78AB183608AB98BB18C7F8BB982E0C1
:1079A0008093C00088E18093C10086E08093C2008C
:1079B00080E18093C40084B1886284B92498229ABB
:1079C0001CBC80E58CBD11E01DBD8DB58EB5219A26
:1079D000229A80E991E02CD1299836D180E197E272
:1079E00027D16FE784E047D131D184E017D180E01F
:1079F00015D1082F29D10F3749F566E286E03BD132
:107A000063E08CE138D164E08DE135D160E787E057
:107A100032D16AE285E02FD161E083E02CD163E0CE
:107A200081E029D11093460180E090E0F0D0898375
:107A300081E090E0ECD08A8382E090E0E8D08B8314
:107A4000BE016F5F7F4F8BE003D122D188E180932D
:107A500060008EE08093600000E010E028E1A22E3C
:107A600038E0932E8824839445E0742E51E1652EEE
:107A700063E0B62EADD1813491F4AAD1F82E4DD267
:107A800082E8F81202C080E004C091E8F91205C053
:107A900085E00FD180E10DD1EDCF83E0FACF8234C4
:107AA00019F484E140D2F6CF853411F485E0FACFA1
:107AB000853549F48DD1082F10E08AD1182B000F9D
:107AC000111F2BD2E7CF863519F484E02CD2DBCFFF
:107AD000843609F065C07CD17BD1E82E79D1582E4F
:107AE000E6E48E1307C00115F0E71F0718F4F8014C
:107AF000B7BEE895FE2C80E8C82EDD24D39468D16B
:107B0000F60181936F01FA94F110F9CFEA94F12C08
:107B1000FFE7EF1AFEEFFF0A26E4521229C0011513
:107B200080E7180718F0F801B7BEE895F6D107B658
:107B300000FCFDCFF801A0E8B1E08C919D012E5F23
:107B40003F4F11964C9190E0942B0C0187BEE89525
:107B500011243296D901A11522E0B20771F7F8017C
:107B600077BEE89507B600FCFDCF67BEE89592CFDB
:107B7000F5E45F128FCFD1D1C801E0E8F1E0EE1655
:107B800009F488CFA89541919C012F5F3F4FF99947
:107B9000FECF92BD81BD40BDFA9AF99AC901EFCFDF
:107BA000843721F515D114D1D82E12D1F82EB5D1A4
:107BB00026E4F21208C0F80185918F017AD0DA9498
:107BC000D110F9CF67CF85E4F81264CFCD2CC8016E
:107BD000C11003C00D0D111D5DCF7C01EFEFEE1A3A
:107BE000FE0A15D066D0CA94C701F2CF853739F4A2
:107BF00094D18EE15ED085E95CD08FE04ACF8135AB
:107C000009F05FCFA0926000909260005ACFF9997E
:107C1000FECF92BD81BDF89A80B508958EBD8FEFDD
:107C200081500DB407FC02C08111FACF8EB50895C2
:107C3000019708F408950000000000000000000013
:107C400000000000A895F4CF2A9A08952A98089574
:107C50001F93CF93DF93182FEB01F8DF812F806202
:107C6000DDDF8881DBDF8981D9DF8A81D7DFDF91A2
:107C7000CF911F91E9CFCF93DF93D82FC62FE6DFA7
:107C80008D2F8062CBDF8C2FC9DFDF91CF91DCCFCE
:107C90008091450181110CC06FE7EDDF62E082E069
:107CA000EADF84E190E0C4DF299A81E08093450116
:107CB0000895EF92FF920F931F93CF93DF939091CC
:107CC0004701992309F47DC0E091440191E09E0FA2
:107CD00090934401F0E0EC5DFE4F8083803121F011
:107CE00080910101981357C0D0E8FF24F394D1503C
:107CF00009F449C080E49FE19BDFC0914401809179
:107D00004501882331F080E991E092DF2998F092D3
:107D100045016EE780E0AFDF61E082E0ACDF96DF37
:107D200081EE7CDF91DF92DF80EA78DF04E211E010
:107D3000C11138C089DF84E190E07ADF299A86DFBB
:107D40008FEF6CDFC82F80DF80E991E071DF299829
:107D500000E117E2FC2FF072EF2EC5FF02C0C0FF5A
:107D600005C0C4FD03C00150110911F560E387E0AF
:107D700082DF80914501882319F01092450188DF48
:107D8000EE2009F4B4CF81E0809344018091240176
:107D90008F5F80932401DF91CF911F910F91FF900E
:107DA000EF900895F80181918F0138DFC150C0CF65
:107DB00084E190E03DDF4ADF8FEF30DFC82F44DF02
:107DC000C9CF9091C00095FFFCCF8093C600E3CF50
:107DD000FF920F931F93CF93DF93D1E085E0F82EAE
:107DE000809146019091C00097FF0DC08091C00026
:107DF00084FD01C0A8958091C600DF91CF911F91AD
:107E00000F91FF900895882369F3809123018823BF
:107E1000A9F0A895809123018823D1F0E091020177
:107E200081E08E0F80930201F0E0ED5FFE4F8081D4
:107E300090912301915090932301DFCF07DF87E1D9
:107E4000EDDE80E0EBDEC82FFFDEC0FFE2CFC8CF63
:107E500060E487E010DFFADE80E6E0DE80E0DEDE70
:107E6000C82FF2DEC0932301F1DE81E6D7DE03E006
:107E700011E0C1112EC0E8DED093020180914701CC
:107E8000811119C080912301843050F163E071E0C9
:107E900080E1DEDE63E071E08AE0DADE80910601F7
:107EA0008093010180912301845080932301F092FB
:107EB0000201D093470180912301882309F490CFD8
:107EC000909103012091000192130DC010922301A3
:107ED00087CF80E0A3DEF80181938F01C150C9CF25
:107EE00010922301E8CF90930001815080932301E9
:107EF00095CF80914501882321F080E991E098DEBB
:107F000029986CE780E0B7DE1092450188E1809304
:107F1000600088E080936000FFCF5ADF803209F074
:107F2000E8DF84E1C6CECF93C82F52DFC150E9F716
:107F3000CF91F3CFE0E6F0E098E19083808308955D
:107F4000E0E6F0E098E1908398E29083282EEE2717
:047F5000FF2709946A
:027F5400FF200C
:027FFE0000057C
:040000030000790080
:00000001FF
