:1079000000D000D0CDB7DEB7F89411248FED98E009
:107910009EBF8DBFCDB7DEB724B714BE23FF18C0FE
:107920008091EC089091ED08A091EE08B091EF08DD
:107930008F3E9E4BAD4ABE4D59F41092EC0810920A
:10794000ED081092EE081092EF088091EB080ED32C
:107950002093EB088FEE9EEBADEABEED8093EC0832
:107960009093ED08A093EE08B093EF0811E0A0E02B
:10797000B1E0E0E8FFE702C005900D92A230B10748
:10798000D9F711E0A2E0B1E001C01D92A834B1071F
:10799000E1F78AB183608AB98BB18C7F8BB982E0C1
:1079A0008093C00088E18093C10086E08093C2008C
:1079B00080E18093C40084B1886284B92498229ABB
:1079C0001CBC80E58CBD11E01DBD8DB58EB5219A26
:1079D000229A80E991E02DD1299837D180E197E270
:1079E00028D16FE784E033D12A9884E018D180E071
:1079F00016D18C832AD18C818F3749F566E286E0D7
:107A000026D163E08CE123D164E08DE120D160E7F1
:107A100087E01DD16AE285E01AD161E083E017D1E9
:107A200063E081E014D11093460180E090E0F0D053
:107A3000898381E090E0ECD08A8382E090E0E8D016
:107A40008B83BE016F5F7F4F8BE022D110D188E125
:107A5000809360008EE08093600000E010E068E1B9
:107A6000C62E78E0B72EAA24A394E5E09E2EF1E17D
:107A70008F2EA3E0DA2EB0D1813469F4ADD18C839E
:107A800062D28C818238F1F0813811F485E001C036
:107A900083E00DD1BAC0823411F484E103C085348F
:107AA00019F485E056D2B1C0853541F495D1082F3F
:107AB00010E092D1182B000F111FA6C0863521F4BB
:107AC00084E047D280E0E5CF843609F06AC084D1F3
:107AD00083D1E82E81D1982F863421F4011580E7D7
:107AE000180740F030E8632E7724739440E8F42EB2
:107AF000FE0C04C0F801D7BEE895F4CF9C836CD18E
:107B0000F30181933F019C81FE12F8CFEA94F12C9E
:107B1000FFE7EF1AFEEFFF0A963459F5011520E74B
:107B2000120718F0F801D7BEE8950DD207B600FC91
:107B3000FDCFA801A0E8B1E08C9112969D012150E3
:107B40003109F901208190E0922BFA010C01A7BEC6
:107B5000E89511244E5F5F4FA115F2E0BF0761F772
:107B6000F80197BEE89507B600FCFDCF87BEE89503
:107B70004CC0953409F049C0E6D1C801E0E8F1E015
:107B8000EE1609F442C0A89541919C012F5F3F4F2A
:107B9000F999FECF92BD81BD40BDFA9AF99AC9010B
:107BA000EFCF843711F518D117D1782E15D18C83EA
:107BB000CAD18C81863439F4F80185918F0177D050
:107BC0007A94D1F722C0853401F5C801672C600E84
:107BD000681641F07C01FFEFEF1AFF0A19D067D059
:107BE000C701F6CF070D111D10C0853739F4ABD191
:107BF0008EE15DD085E95BD08FE04BCF813521F4FC
:107C0000C0926000B09260009ED180E150D033CF2E
:107C1000F999FECF92BD81BDF89A80B508958EBDC9
:107C20008FEF81500DB407FC02C08111FACF8EB5E1
:107C30000895019748F000000000000000000000D7
:107C400000000000A895F5CF08952A9A0895CF93D3
:107C5000DF931F92CDB7DEB72A9880626983DFDF9A
:107C60006981862FDCDF0F90DF91CF91EECF80917D
:107C7000450181110CC06FE7EADF62E082E0E7DFD7
:107C800084E190E0D6DF299A81E080934501089550
:107C9000CF93DF93EB012A988062C1DF8881BFDF39
:107CA0008981BDDF8A81BBDFDF91CF91CECFCF92BB
:107CB000DF92EF92FF920F931F93CF93DF939091F8
:107CC0004701992309F479C0E091440191E09E0FA6
:107CD00090934401F0E0EC5DFE4F8083803121F011
:107CE0008091010198136FC080E8E82EDD24D394C1
:107CF00004E211E0EA9409F457C080E49FE199DFBF
:107D0000F090440180914501882331F080E991E0B1
:107D100090DF2998D09245016EE780E098DF61E01E
:107D200082E095DF2A9881EE7ADF8FDF2A9880EA59
:107D300076DFC4E2D1E0F00EFC1619F089916FDF16
:107D4000FBCF83DF84E190E074DF299A2A988FEFDC
:107D500066DFF82E7ADF80E991E06BDF2998C0E1D9
:107D6000D7E28F2D8072C82EF5FE0DC0F0FC0BC03F
:107D700060E387E06CDF80914501882391F01092E9
:107D8000450175DF0EC0F4FCF3CF2197209781F3F6
:107D900084E190E04EDF2A988FEF41DFF82E55DF27
:107DA000E0CFCC2009F4A6CF81E0809344018091FC
:107DB00024018F5F8093240106C09091C00095FF3D
:107DC000FCCF8093C600DF91CF911F910F91FF9060
:107DD000EF90DF90CF900895AF92BF92DF92EF9235
:107DE000FF920F931F93CF93DF931F92CDB7DEB710
:107DF00003E011E0FF24F39425E0D22E80914601A8
:107E00009091C00097FF08C08091C00084FD01C020
:107E1000A8958091C60078C0882391F380912301B2
:107E20008823D1F0A8958091230181115EC060E480
:107E300087E00DDF2A9880E6F2DE80E0F0DEE82EB3
:107E400004DFE09223012A9881E6E9DE93E0A92E7F
:107E500091E0B92EE00E0BC02A9887E1E0DE80E0C9
:107E6000DEDE8983F2DE898180FFDCCFC7CFEA14B2
:107E700031F080E0D4DEF50181935F01F8CFE5DEDB
:107E8000F09202018091470181111CC08091230171
:107E90008430B0F063E071E080E1FADE63E071E02D
:107EA0008AE0F6DE80910601809301018091230132
:107EB000845080932301D0920201F092470102C0C6
:107EC0001092230180912301882309F497CF909188
:107ED000030120910001921303C0109223018ECF61
:107EE00090930001815080932301E091020181E091
:107EF0008E0F80930201F0E0ED5FFE4F8081909144
:107F000023019150909323010F90DF91CF911F9106
:107F10000F91FF90EF90DF90BF90AF900895809108
:107F20004501882321F080E991E083DE29986CE700
:107F300080E08DDE1092450188E18093600088E04A
:107F400080936000FFCF48DF803209F0E8DF84E1F2
:107F5000AECECF93C82F40DFC150E9F7CF91F3CF1A
:107F6000E0E6F0E098E1908380830895E0E6F0E0B9
:107F700098E1908398E29083282EEE27FF270994BA
:027F8000FF20E0
:027FFE0000057C
:040000030000790080
:00000001FF
